:020000040800F2
:1000000010800020550200083D360008C534000865
:100010003B360008991300087F5E000800000000CE
:100020000000000000000000000000009D0100082A
:10003000E12B000800000000F1010008153D000858
:100040006F0200086F0200086F0200086F020008CC
:100050006F0200086F020008C12D00086F0200083F
:100060006F0200086F0200086F0200086F020008AC
:100070006F0200086F0200086F0200086F0200089C
:100080006F0200086F0200086F0200086F0200088C
:10009000A11400086F0200086F0200086F02000838
:1000A0006F0200086F0200086F0200086F0200086C
:1000B0006F0200086F020008E53D00086F020008AB
:1000C0006F0200086F0200086F0200086F0200084C
:1000D0006F020008014200086F020008BD430008DB
:1000E0006F0200086F0200086F0200086F0200082C
:1000F0006F0200086F0200086F0200086F0200081C
:100100006F0200086F0200086F0200086F0200080B
:100110006F0200086F0200086F0200086F020008FB
:100120006F0200086F0200086F0200086F020008EB
:100130006F0200086F0200086F0200086F020008DB
:10014000DD1500086F0200086F020008C9360008BC
:100150006F0200086F02000875270008214600089A
:100160006F0200086F0200086F0200086F020008AB
:100170006F0200086F0200086F0200080000000014
:100180006F0200086F020008DFF80CD000F096FC48
:10019000004800471DAE0008108000202A4B196857
:1001A0000868B0E8F04F80F30988BFF36F8F4FF015
:1001B000000080F3118870470000000006480068C6
:1001C000006880F3088862B661B6BFF34F8FBFF353
:1001D0006F8F00DF00BF00BF08ED00E0DFF80C000C
:1001E000016841F470010160704700BF88ED00E0D4
:1001F000EFF30980BFF36F8F134B1A681EF0100FD7
:1002000008BF20ED108A20E9F04F106008B44FF0CD
:10021000500080F31188BFF34F8FBFF36F8F0DF045
:100220007DFD4FF0000080F3118808BC1968086854
:10023000B0E8F04F1EF0100F08BFB0EC108A80F34A
:100240000988BFF36F8F704700000010EFF305803F
:10025000704700000648804706480047FEE7FEE773
:10026000FEE7FEE7FEE7FEE7FEE7FEE7FEE7FEE766
:10027000553D0008890100089FED1A1AF5EE000AA5
:1002800040EE010ABDEEE00AF5EEC00A10EE100ADB
:10029000F1EE10FA38BF401E00EE100A1349F7EED7
:1002A000001AB8EEC00A30EEC00ADFED0F0A20EEE9
:1002B000200AFCEEC00A10EE900AC0F3080000EE1F
:1002C000900A01EB8000F8EE600A90ED011A70EEE2
:1002D000600A90ED000A71EEE01A21EE800A00EE4D
:1002E000810A704783F9223E0000004490EE000826
:1002F000DFED190AB5EEC00A60EE200ABDEEE01A85
:1003000011EE100AF1EE10FA38BF401E00EE100A8E
:100310001349F7EE001AB8EEC00A30EEC00ADFED5E
:100320000F0A60EE200ABCEEE00A10EE100AC0F3DD
:10033000080000EE100A01EB8000B8EE400A90EDD4
:10034000011A70EEC00A90ED000A71EEE01A21EE7B
:10035000800A00EE810A704783F9223E00000044C3
:1003600090EE000840EA01039B0703D009E008C9AA
:10037000121F08C0042AFAD203E011F8013B00F86A
:10038000013B521EF9D27047D2B201E000F8012BB6
:10039000491EFBD270470022F6E710B513460A4605
:1003A00004461946FFF7F0FF204610BD421C10F826
:1003B000011B0029FBD1801A7047034611F8012B5D
:1003C00000F8012B002AF9D1184670472DE9FE4F9D
:1003D000804681EA0300C00F0C46009021F00041E6
:1003E00023F00045B8EB0200A94105D24046214662
:1003F00090461C460B46024623F00040104347D06F
:10040000270DC7F30A00C3F30A510290401A019066
:1004100040286BDAC3F3130040F4801B0098924627
:1004200020B10023D2EB030A63EB0B0B0198594672
:10043000C0F14002504600F0E7F906460D4650462E
:100440005946019A00F0FFF910EB080061410024C1
:1004500087EA115284EAE7731A4340D0009A62B3E4
:10046000019A012A4FEA075215DC001B61EB0201D9
:100470004FF0004202EA0752CDE90042001C41F56C
:10048000801132462B4600F036FA03B0BDE8F08FFB
:1004900040462146F9E7001B61EB0201001C41F5D3
:1004A000801300185B412018A2F5001747EB0301E9
:1004B00040EAD570B6196D4111E06D084FEA360675
:1004C00045EAC0754FEA0752001B61EB0201001CB0
:1004D00041F5801149084FEA300000195141324678
:1004E0002B4603B0BDE8F04F00F0F6B900980122AA
:1004F00040000023D0EB020263EBE073009821463A
:100500004FEAE074B8EB000061EB0401E9E783F027
:1005100000435BE781F0004158E72DE9FE4F81EA97
:10052000030404F0004421F0004100944FF0000B5C
:1005300023F0004350EA01045ED052EA03045BD08A
:10054000C3F30A54C1F30A552C44A4F2F3340194C2
:10055000A0FB0254C1F3130141F48011C3F3130350
:1005600043F4801301FB024400FB034E840A970A04
:1005700044EA815447EA8357A4FB076802958D0A31
:1005800005FB07854FEA932C04FB0C542705029DBD
:100590004FEA065847EA1637B5EB08056EEB070C2D
:1005A000870E920E47EA811742EA8312A7FB0201E7
:1005B000B6EB0B0164EB00042B0D43EA0C335E1821
:1005C00044EB1C50DA465146E7FB0201C5F3130425
:1005D0004FEA0B3343EA14534FEA0432019C43EAD7
:1005E0000603A4F10C040294009CCDE900B400F0D1
:1005F00082F903B0BDE8F08F00200146F9E72DE94C
:10060000F04D81EA030404F0004B21F0004514464C
:100610004FF0000A23F0004150EA050220D054EACE
:1006200001021DD0C5F30A570246C5F31303C1F3F7
:100630001300C1F30A5640F4801543F48013A7EB6E
:100640000608101BD64608F2FD3873EB050002D3EE
:1006500008F1010801E092185B41B8F1000F03DADC
:1006600000200146BDE8F08D00204FF480110646C1
:1006700084460EE0171B73EB050705D3121B63EBD3
:10068000050306434CEA010C49084FEA3000921872
:100690005B4150EA0107EDD152EA030012D082EA31
:1006A000040083EA0501084305D0101BAB4106D2C4
:1006B0000122002306E000224FF0004302E06FF029
:1006C000010253101AEB06004CEB085110EB0A0024
:1006D00041EB0B01BDE8F04D00F0FEB80EB5C10FC7
:1006E00080EAE0700844CA07002140F233438DE8F5
:1006F0000E000A460B4600F0FEF803B000BD0EB532
:1007000040F2334102910021CDE900110A460B4627
:1007100000F0F1F803B000BDC1F30A5210B5C1F307
:10072000130140F2FF3341F480119A4201DA0020B4
:1007300010BD40F233439A42A2F2334203DC5242EC
:1007400000F071F810BD904010BD00F0004230F094
:1007500000400AD0C10D01F56071C0F3160042EAF5
:100760000151C208400711437047002001467047FD
:1007700030B5041E71F1000404DB4FF00044404228
:1007800064EB0101141E73F1000405DB1C464FF0FD
:100790000043524263EB04038B4208BF824230BDE8
:1007A00030B5041E71F1000404DB4FF000444042F8
:1007B00064EB0101141E73F1000405DB1C464FF0CD
:1007C0000043524263EB0403994208BF904230BD9C
:1007D00001F0004330B421F0004150EA010206D09C
:1007E0000A0DA2F56072C1F31301002A02DC30BCCD
:1007F00000207047440F44EAC104C100E01830BC37
:1008000000EBC25000F031B8202A04DB203A00FA95
:1008100002F1002070479140C2F1200320FA03F357
:10082000194390407047202A04DB203A21FA02F055
:100830000021704721FA02F3D040C2F1200291401A
:10084000084319467047202A06DBCB17203A41FAA5
:1008500002F043EAE07306E041FA02F3D040C2F14D
:10086000200291400843194670470029A8BF7047ED
:10087000401C490008BF20F00100704710B4B0FAD6
:1008800080FC00FA0CF050EA010404BF10BC704771
:1008900049B1CCF1200421FA04F411FA0CF118BF8B
:1008A000012121430843A3EB0C01CB1D4FEA00615A
:1008B0004FEA102042BF002010BC704700EBC3502D
:1008C00010440029A4BF10BC7047401C490008BF59
:1008D00020F0010010BC704710B5141E73F1000425
:1008E00008DA401C41F1000192185B411A4301D122
:1008F00020F0010010BD2DE9F04D92469B4611B14C
:10090000B1FA81F202E0B0FA80F220329046FFF7AD
:100910007BFF04460F4640EA0A0041EA0B015346BA
:100920005A46084313D0114653EA010019D0C8F1C2
:1009300040025046FFF777FF05460E46504659469F
:100940004246FFF761FF084305D0012004E020463E
:100950003946BDE8F08D0020054346EAE0762C4399
:1009600037430A986305E40AA0EB08000022FD0A59
:1009700044EA47540A3002D500200146E9E7010560
:1009800010196941DDE9084500196941BDE8F04DDC
:10099000A2E72DE9F04D00231A461B1A8A4103DB1A
:1009A00000200146BDE8F08DC1F30A52C1F31301E6
:1009B00041F480154FF0000BD10702D100186D41B2
:1009C000521E0027044640F2FF11384601EB620A2E
:1009D0003E468046024600204FF48011FFF723FF79
:1009E000C2197141BB1846EB0100B4EB030C75EB67
:1009F000000C04D3E41A65EB000517460E462419D3
:100A000008F101006D4180463428E3DDF91946EB19
:100A10000600091BA84103D24FF0FF32134601E044
:100A2000002213461BEB070046EB0A51BDE8F04DD0
:100A3000FFF752BF2DE9FE4FC3F30A5701F00045FF
:100A40000024C1F30A56C3F31303C1F3130143F4A3
:100A5000801312EB020AA64641F48011009543EB85
:100A6000030CA7F1010B16E0B0EB0A0061EB0C01DF
:100A7000071E71F1000707DA4FF00008D0EB0800FD
:100A800085F0004568EB0101171A73EB0107EBD302
:100A9000761E001849415E45F6DA50EA010209D097
:100AA000CDE900E5002213460296FFF724FF03B0CC
:100AB000BDE8F08F20460099F9E70000064C074D8D
:100AC00006E0E06840F0010394E80700984710341E
:100AD000AC42F6D3FFF75CFB94F60008D4F60008AE
:100AE00070B58C1810F8015B15F0070301D110F8F0
:100AF000013B2A1106D110F8012B03E010F8016B1D
:100B000001F8016B5B1EF9D12B0705D40023521E9F
:100B10000DD401F8013BFAE710F8013BCB1A921C07
:100B200003E013F8015B01F8015B521EF9D5A14205
:100B3000D8D3002070BD05F039BA05F0CDBAFFF763
:100B40009BBBF0EE400AF5EEC00AF1EE10FA02DDB2
:100B5000B0EE600A7047B1EE600AFBE7002803D0F0
:100B60009FED020A80ED000A7047000000000000BF
:100B7000002803D0B3EE060A80ED000A704700009B
:100B800070B52DED0C8B84B006460C4615469FEDD6
:100B9000990AF0EE408A9FED970AB0EE409A9FEDD9
:100BA000950AF0EE40BA9FED930AF0EE409A9FED61
:100BB000910AB0EE40AA0EB104B11DB904B0BDEC6B
:100BC0000C8B70BD8C48FFF7C9FF8C48FFF7D0FF36
:100BD0008A48D0ED000A9FED8A1A60EE810AB0EED5
:100BE000600A00F025F9F0EE408A28EEA80AF0EE3F
:100BF000408A8248D0ED000AB0EE001A60EE810A09
:100C00009FED7F1A60EE810AB0EE600A00F010F9E5
:100C1000B0EE409A29EE090AB0EE409ADFED790A6B
:100C2000B7EE000A00EEA80ADFED770A00EEC90A67
:100C3000DFED760A20EE200A754880ED000A6E4846
:100C400090ED000ADFED730A80EE201AB7EE000A7D
:100C500031EE000A20EE000A6D48D0ED000A80EE69
:100C6000801A6D4880ED001A94ED000AB5EEC00AB6
:100C7000F1EE10FA0DD194ED010AB5EEC00AF1EED5
:100C800010FA06D194ED020AB5EEC00AF1EE10FAA0
:100C900046D09FED580AB0EE408A002001900290A5
:100CA0000390D4ED000A60EEA00A94ED011AD4ED91
:100CB000011A41EE210A94ED021AD4ED021A41EE16
:100CC000210AB0EE600A00F0A9F8B0EE408A94ED77
:100CD000000A20EE080A8DED010A94ED010A20EECB
:100CE000080A8DED020A94ED020A20EE080A8DED45
:100CF000030ADDED010AF1EE600AB0EE600AFFF7CB
:100D00001AFFF0EE409A9DED031AF0EE410A9DEDB8
:100D1000021AB0EE410AFFF710FFB0EE40AA07E05A
:100D20009FED340AF0EE409A9FED320AB0EE40AAF1
:100D300095ED000AB5EEC00AF1EE10FA0DD195ED71
:100D4000010AB5EEC00AF1EE10FA06D195ED020ADD
:100D5000B5EEC00AF1EE10FA3CD0B0EE690A00F030
:100D600067F8B0EE408AB0EE690AFFF7E8FEB0EE31
:100D700040DAB0EE4A0A00F05BF8F0EE40AAB0EEBE
:100D80004A0AFFF7DCFEB0EE40BA28EE2A0AD5ED9B
:100D9000010A20EE200AD5ED000A0DEE200A68EEC9
:100DA0000B0A95ED021A00EE810AB0EE40CA95EDED
:100DB000010A20EE0B0AD5ED020A0AEEE00AF0EE77
:100DC00040CAF0EE6C0AB0EE4C0AFFF7B6FEF0EE49
:100DD00040BA03E09FED070AF0EE40BAB0EE4A1ABF
:100DE000F0EE690AB0EE6B0A304605F093FD00BFE5
:100DF000E4E6000000000000DC060020E006002021
:100E000035FA8E3CC1BFAD3B9DF8C5362F7C1C41E9
:100E1000E4060020506CC24AE806002010B505F038
:100E20004CFBB7EE001AC1EE000AB0EE600A10BD2E
:100E3000FFF75EBA2DE9F0412DED028B9AB0054621
:100E4000B0EE408A0E46174698460020179018903C
:100E500019901490159016904DB146B13FB1B8F16C
:100E6000000F04D0B5EEC08AF1EE10FA05D10020D3
:100E70001AB0BDEC028BBDE8F08196ED000A8DED55
:100E8000170A96ED010A8DED180A96ED020A8DED0E
:100E9000190A97ED000A8DED140A97ED010A8DED00
:100EA000150A97ED020A8DED160A17AA14A928460D
:100EB00005F082FB402104A8FFF76DFA00200090A6
:100EC000019002900390002417A904A80CF01FFBC6
:100ED00000BF30E004A800EB041090ED000AD5ED4F
:100EE000000A20EE200A04A800EB0410D0ED010A4D
:100EF00095ED011A00EE810A04A800EB0410D0ED74
:100F0000020A95ED021A00EE810A04A800EB041013
:100F1000D0ED030A95ED031A00EE810A20EE080ACF
:100F2000F0EE000A80EE201A684600EB840080EDA7
:100F3000001A601CC4B2042CCCDB002410E005EBCA
:100F4000840090ED000A684600EB8400D0ED000AB2
:100F500030EE200A05EB840080ED000A601CC4B26C
:100F6000042CECDB28460BF0F5F8012080E70000AC
:100F70001021014802F059B9000002401021014837
:100F800002F051B900000240704700000121014801
:100F900002F04BB9000402400121014802F043B9BC
:100FA0000004024000B583B00121042002F0DAFB06
:100FB0000121880302F00EFC0421022002F014FE3D
:100FC0000521022002F010FE3020009000208DF854
:100FD000040001208DF8070003208DF80500694604
:100FE000024802F0BDF803B000BD00000008024056
:100FF000704707F0BBBB07F0D5BB00002DE9F047F9
:101000002DED028BFFF7C0FFFFF7F2FF05F060FD4B
:10101000044605F0EBFD40EA0409304D00206880ED
:1010200005F112042E4F2F4E9FED2F8A41F2883882
:10103000FFF7B2FF08222D49002000F01FF9FFF74B
:10104000A5FF20780F283ED1E078A178000200B2F9
:10105000084300EE100AF8EEC00A95ED020A60EEB1
:10106000800AC7ED030A60792179000200B20843C3
:1010700001EE100AB8EEC11A21EE001A87ED041A2B
:10108000E079A179000200B20143298001EE901AB3
:10109000F8EEE11A21EE800A87ED050AD6ED001A76
:1010A00040EEC81AC6ED001AD6ED010A41EE480A14
:1010B000C6ED010AD6ED020A40EE480AC6ED020A64
:1010C0000120FFF796FF6888401C01B26980414506
:1010D000AEDBBDEC028B4846BDE8F087B8050020CA
:1010E000A4370020A41F002017B75139CA050020DB
:1010F000F0B583B004460D461646002000900190DE
:10110000FFF73CFF922000F0D7F806226946122034
:1011100000F0B4F8FFF72CFFFFF730FF922000F04B
:10112000CBF806225349122000F0A8F8FFF720FF61
:101130009DF801009DF80010000200B2084300EE87
:10114000100A4D4FB8EEC00AD7ED010A20EE200A72
:1011500085ED000A9DF803009DF80210000200B220
:10116000084300EE100AF8EEC00A97ED010A60EE9F
:10117000800AC5ED010A9DF805009DF804100002E3
:1011800000B2084300EE900AF8EEE00A20EE800A72
:1011900085ED020AFFF700FF08226946002000F0F3
:1011A0006DF8FFF7F3FEFFF7F7FE082207F11A01CB
:1011B000002000F063F8FFF7E9FE9DF800000F281B
:1011C00030D19DF803009DF80210000200B20843E0
:1011D00000EE100AD7ED020AB8EEC00A20EE200A8F
:1011E00084ED000A9DF805009DF80410000200B28D
:1011F000084300EE100AF8EEC00A97ED020A60EE0E
:10120000800AC4ED010A9DF807009DF8061000024F
:1012100000B2084300EE900AF8EEE00A20EE800AE1
:1012200084ED020AFFF7AAFEA22000F045F8022290
:101230006946222000F022F8FFF79AFE9DF8000090
:101240009DF80110C00040EA5110B0F5806F02DB3C
:10125000A0F5006000B200EE100AB4EE001AF8EE3D
:10126000C00AB3EE070A00EE810A86ED000A03B059
:10127000F0BD0000C4050020B805002070B50D4683
:10128000144640F0800000F017F8002C08D05520DC
:1012900000F012F828706D1C601EC4B2002CF6D14C
:1012A00070BD10B50C4640F0800000F005F85520E8
:1012B00000F002F8207010BD0021114A138913F0CC
:1012C000020F104B07D199420CD2491CB2F808C04A
:1012D0001CF0020FF7D090810020118911F0010F4E
:1012E00002D008E000207047984207D2401C1189C4
:1012F00011F0010FF8D09089C0B2704700207047FC
:101300000030014080A2190010B50C46FFF7D4FF51
:101310002046BDE81040FFF7CFBF00000549044854
:101320004B680A68896843600260816003207047E7
:10133000001C002000000A082DE9F04104460D467B
:10134000144E304601F073FF074601F04DFE0020B9
:1013500001F0BCFDF32001F0B3FD0221384601F09D
:10136000C5FD0928F9D16D1E0CD32178304601F056
:101370001FFE092802D00020BDE8F081761C641C05
:101380006D1EF2D2012001F0A1FD01F009FE022044
:10139000BDE8F08100000A08FEE700002DE9F04FEB
:1013A0008BB00746149E884691469A460121082034
:1013B00002F0D8F90121480602F0F0F901214806AF
:1013C00002F0FAF900214FF0007002F0F5F94FF049
:1013D000030CCDF820C002208DF8240000248DF8E5
:1013E000264001258DF827508DF825C0DFF8A8B0DC
:1013F00008A9584601F0B4FE09220021584601F020
:10140000FAFE09220121584601F0F5FE8DF81B5025
:101410008DF81C408DF81A408DF81F408DF81D4046
:101420008DF81E408DF81670ADF814608DF8189088
:101430008DF819A08DF81780184E05A9304600F0D8
:101440004AFAADF80C408DF80F408DF81050ADF809
:101450000440ADF80640ADF80840ADF80A408DF8FC
:101460000E408DF8115001A800F028F90122022148
:10147000304600F025FA14208DF8000005208DF884
:1014800001008DF802408DF80350684602F0D8F84C
:101490000BB0BDE8F08F0000000C0240006400407B
:1014A00010B50B4C0221204600F084F900280ED024
:1014B0000221204600F0AEF8064A0021204600F046
:1014C00093FA2046BDE81040024902F0C7BA10BDA9
:1014D00000640040BC1900202DE9F04F8BB0074696
:1014E000149E884691469A460121022002F03AF95C
:1014F0000121880602F052F90121880602F05CF908
:1015000000214FF0806002F057F96020089002201F
:101510008DF8240000248DF8264001258DF82750F1
:1015200003208DF82500DFF8ACB008A9584601F07B
:1015300017FE09220521584601F05DFE0922062109
:10154000584601F058FE8DF81B508DF81C408DF860
:101550001A408DF81F408DF81D408DF81E408DF803
:101560001670ADF814608DF818908DF819A08DF8EC
:101570001780194E05A9304600F0ADF9ADF80C40C2
:101580008DF80F408DF81050ADF80440ADF80640CE
:10159000ADF80840ADF80A400E208DF80E008DF829
:1015A000115001A800F08AF801220221304600F013
:1015B00087F940208DF8000005208DF801008DF896
:1015C00002408DF80350684602F03AF80BB0BDE8CF
:1015D000F08F0000000402400068004010B50B4C82
:1015E0000221204600F0E6F800280ED00221204615
:1015F00000F010F8064A0021204600F0F5F92046D8
:10160000BDE81040024902F029BA10BD0068004050
:10161000D019002010B4102304224FF0080CB1F5AB
:10162000007F3FD013DC202931D008DC012926D0EF
:10163000042928D0082900D1C36010BC7047402974
:1016400029D0B1F5807FF8D1426010BC70470024EA
:10165000B1F5004F2CD009DCB1F5806F25D0B1F584
:10166000006FF2D18461426010BC7047B1F5803FD9
:1016700014D0B1F5003FF7D1436010BC70470E495C
:10168000816010BC7047C0F80CC010BC7047C0F837
:1016900010C010BC7047036110BC7047C0F804C094
:1016A00010BC7047426010BC7047426010BC70476D
:1016B0008461426010BC70470101010030B4827A3D
:1016C00001219140364B1A6842F001021A60DFF89E
:1016D000D4C0DCF800208A43CCF80020047B324AD6
:1016E000002C1AD114688C4314604488C58844EADD
:1016F0000544857AED0005F1804505F5C045C5F83E
:1017000040460588848845EA0445847AE40004F16B
:10171000804404F5C044C4F84456047B012C1AD11B
:1017200014680C4314604288048842EA0442847AB4
:10173000E40004F1804404F5C044C4F84026C288A3
:10174000848842EA0442847AE40004F1804404F587
:10175000C044C4F84426C47A144A34B114680C4313
:1017600014600489124A24B106E014688C431460A2
:10177000F7E714688C4314600489012C02D11468C3
:101780000C431460407B012804D1DCF800000843BE
:10179000CCF80000186820F00100186030BC7047D9
:1017A000006600401C6600400C6600400466004075
:1017B0001466004010B5002243690B427CD0B1F59D
:1017C000807F5CD010DC082935D006DC012920D0D0
:1017D000022924D004296FD127E0102931D02029F3
:1017E00035D0402968D138E0B1F5004F5FD009DC31
:1017F000B1F5007F49D0B1F5806F4CD0B1F5006FE5
:101800005AD14EE0B1F5803F2DD0B1F5003F53D114
:101810002FE08068294900F07DFB02464CE0C0685B
:10182000032100F077FB024646E0C068082100F083
:1018300071FB024640E0C068102100F06BFB0246DD
:101840003AE00069032100F065FB024634E00069DC
:10185000082100F05FFB02462EE00069102100F035
:1018600059FB024628E04068082100F053FB02467D
:1018700022E04068102100F04DFB02461CE0806928
:10188000012100F047FB024616E08069022100F0CA
:1018900041FB024610E08069042100F03BFB024658
:1018A0000AE08069702100F035FB024604E04068E0
:1018B000042100F02FFB0246104610BD010101007B
:1018C000002A03D04269114341617047426922EA0C
:1018D0000101416170470022036823F002030360A5
:1018E000036843F0010303604FF6FF7300E0521CEE
:1018F000D0F804C01CF0010F01D19A42F7D1426820
:1019000012F0010F41D08A79012A40D0026822F0FA
:1019100080020260CA79012A3ED0026822F04002A9
:1019200002600A7A012A3CD0026822F0200202609A
:101930004A7A012A3AD0026822F0100202608A7ABA
:10194000012A38D0026822F008020260CA7A012A0D
:1019500036D0026822F0040202608A7891F803C04F
:10196000920742EA0C6291F804C042EA0C4291F8F4
:1019700005C0098842EA0C52491E1143C161016841
:1019800021F001010160002120E000207047026881
:1019900042F080020260BDE7026842F0400202604D
:1019A000BFE7026842F020020260C1E7026842F02D
:1019B00010020260C3E7026842F008020260C5E755
:1019C000026842F004020260C7E7491C426812F054
:1019D000010F01D09942F8D1406810F0010F01D0F9
:1019E000002070470120704700EB0113D3F8B0C10D
:1019F0000CF0040C82F808C0BCF1000F47D0D3F8FB
:101A0000B0C14FEADC0CC2F804C0D3F8B0C10CF08E
:101A1000020C82F809C0D3F8B4C10CF00F0C82F8A4
:101A20000AC0D3F8B4C14FEA1C2C82F813C0D3F813
:101A3000B8C182F80BC0D3F8B8C14FEA1C2C82F8A9
:101A40000CC0D3F8B8C14FEA1C4C82F80DC0D3F8D3
:101A5000B8C14FEA1C6C82F80EC0D3F8BCC182F842
:101A60000FC0D3F8BCC14FEA1C2C82F810C0D3F8C9
:101A7000BCC14FEA1C4C82F811C0D3F8BC311B0E1C
:101A8000937459B1016941F0200101617047D3F8A5
:101A9000B0C14FEA5C5CC2F800C0B6E7C16841F073
:101AA0002001C160704710B402460020936813F013
:101AB000806F0CD1906810F0006F01D0012006E01B
:101AC000906810F0805F01D0022000E0042004281C
:101AD0004FD002EB0012D2F8803103F00103C2F8BC
:101AE00080310B7AE3B3D2F880C14C684CEA03032F
:101AF00091F809C04CEAC40C43EA0C03C2F88031E7
:101B00008B7A03F00F038B72D2F8843123F00F032A
:101B1000C2F88431D2F8843191F80AC043EA0C0348
:101B2000C2F88431CB7A91F80EC00C7B43EA0C6387
:101B300091F80DC04FEA0C4C4CEA042C43EA0C031C
:101B4000C2F88831CB7B91F812C043EA0C6391F85C
:101B500011C0097C4FEA0C4C4CEA0121194300E00A
:101B600009E0C2F88C11D2F8801141F00101C2F8ED
:101B7000801110BC7047D2F8803191F809C043EA57
:101B80000C03B1F800C043EA4C53C2F88031B7E708
:101B90001A481B4A1C49B0F84E301A483C2B90EDAD
:101BA0000D0A12D1D0ED0C0A70EEC00A10EE900AA8
:101BB000B0F1804F03DB10EE100A904205DB88691C
:101BC0000A2804D0401C886101E0002088618869EF
:101BD0000A2801D181ED010AD1ED010AB4EEE00A33
:101BE000F1EE10FA01DD81ED010A4868904203DA56
:101BF000B3EE040A81ED010A70470000FC270020C3
:101C00000000A0414C1C0020040100202DE9F04FF1
:101C100006462DED0C8B8BB028200A90DFEDAE9A96
:101C2000F0EE698ACDED018ADFEDACBA9FEDAC9A9A
:101C30009FEDACCADFEDACCA01A807F087F8DFED75
:101C4000AB0A9DED010AAA4809F0BAFC0AA807F000
:101C5000B1F8A748D0ED0C0ABDF8280000EE100A34
:101C6000B8EE400A30EE608AA248B0F84E000A286A
:101C700003D800200AF062FC0AE09FED9F0A28EEDC
:101C8000000ABCEEC00A10EE100A80B20AF056FC40
:101C90009A49087D10F0100F994811D1B1F902103E
:101CA000B1F5257F0CD000210170964A716B9142ED
:101CB00012DD017839B19FED940A78EE000A0FE049
:101CC00001210170F1E7B1EE040AD0ED010A38EE0E
:101CD000000A60EE200A03E090ED010A68EE000AB7
:101CE000002006AF06EB4002B2F92410B2F914202E
:101CF00000EE101AB8EEC00A20EE2B1A00EE102AE1
:101D0000B8EEC00A21EE001A00EE102AB8EEC00AA2
:101D100060EE0C1A00EE102AB8EEC00A01EE801A2E
:101D200000EE101AB8EEC00A60EE091A00EE101AA2
:101D300007EB8001B8EEC00A01EE801A31EE2C0AE2
:101D400081ED000AB5EEC00AF1EE10FA01D370EE93
:101D5000288A401CC0B20428C4D3F4EEE08AF1EE15
:101D600010FA70DDC0EEA8DAF0EE698A0024B0EE59
:101D7000000ADFF8989129EE00BAB1EE000ADFF808
:101D800090B129EE00DA0DF108084FF47A5A07EB0A
:101D9000840090ED000A08EB840020EE2D0A80ED0F
:101DA000000A70EE288AB5EEC00AF1EE10FA49D3A7
:101DB00006EB4405B5F9140000EE900AF8EEE00ACF
:101DC00020EEAB8A00EE900AF8EEE00A20EE8C1AC4
:101DD00000EE900AF8EEE00A11EE200A30EE2C9A9E
:101DE000B5F92400002835DD1BEE100AFEF7ADFC26
:101DF00028EE080A41EC1A0B0DEE490A10EE100A03
:101E0000FEF7A3FC41EC100B04F01AFBB0EE409A75
:101E1000B1EE480AF0EE609A10EE100AFEF795FC5B
:101E200053EC192BFEF7D2FA53EC1A2BFEF7E7FB13
:101E3000FEF7CEFC00EE100A10EE100A484503DD56
:101E4000A5F824A03BE03FE0BDEEC00A10EE100A6A
:101E5000A88434E01BEE100AFEF777FC28EE080A8F
:101E600041EC1A0B0DEE490A10EE100AFEF76DFC5C
:101E700041EC100B04F0E4FAB0EE409AB1EE480ADF
:101E8000F0EE609A10EE100AFEF75FFC53EC192B8F
:101E9000FEF73DFB53EC1A2BFEF7B1FBFEF798FC67
:101EA00000EE100A10EE100A584503D94CF28010CB
:101EB000A88404E0BDEEC00A10EE100AA884601CDD
:101EC000C4B2042CFFF463AF0BB0B0EE680ABDECF3
:101ED0000C8BBDE8F08F0000000000004F020636BA
:101EE000FC110434C3031C348D97824000005C4213
:101EF0003C270020FC2700200000C8425C0D002089
:101F000054050020000070410000484300007A465C
:101F100000007AC6024600200A4200D00120704725
:101F200010B50B4603F07F0202EB820113F0800F25
:101F300000EBC10102D001F58E7101E001F55D7188
:101F40000A70C3F3C0124A7003F012FD002010BDE6
:101F500010B50A4612F0800F02F07F0306D003EBA3
:101F6000830100EBC10101F58E7105E002EB8201F6
:101F700000EBC10101F55D714FF0000C81F802C06A
:101F80000B70C2F3C0124A7003F0D1FC002010BDE8
:101F900070B50C4604F07F0C0CEB8C0114F0800F34
:101FA00000EBC10102D001F58E7101E001F55D7118
:101FB00081F800C0C4F3C0144C708A60CB700CB1BF
:101FC000A1F806C0022B01D100220A7103F07AFCAD
:101FD000002070BD10B501F07F0C0CEB8C0100EB04
:101FE000C10101F55D71CA604B6100238B614B70CB
:101FF00081F800C0C378012B00D10A610A781AB1B8
:1020000003F0F9FC002010BD03F0C7FBFAE7002243
:1020100061F30A120069016811430160704710B54D
:102020000A4612F0800F02F07F0306D003EB830113
:1020300000EBC10101F58E7105E002EB820100EBBE
:10204000C10101F55D714FF0010C81F802C00B7008
:10205000C2F3C0124A7003F0ABFC002010BD10B5F3
:1020600001F07F0C0CEB8C0100EBC10101F58E71CE
:1020700001244C7081F800C0CA600A6100228A61A4
:102080004B61BCF1000F03D003F0B5FC002010BD84
:1020900003F083FBFAE7000070B586B006463046D1
:1020A00003F050FB684601F0B9FB019DF068C16880
:1020B00021F470540494C460304603F0E7FD0146F7
:1020C000002003290ED00120B0704020B08041488C
:1020D0004149284488420FD224F4705000F56050E2
:1020E00004906CE0B0704FF40070B08024F4705035
:1020F00000F51050049062E0A5F574003749A0F592
:102100001050884205D224F4705000F550500490CD
:1021100055E0334833492844884205D224F47050AE
:1021200000F5405004904AE0A5F18C702E49A0F5CE
:102130004340884205D224F4705000F5305004909A
:102140003DE02A482A492844884205D224F47050A8
:1021500000F52050049032E0264827492844884260
:1021600005D224F4705000F51050049027E0A5F13A
:10217000B7702249A0F55850884205D224F4705017
:1021800000F5005004901AE01D481E49284488427A
:1021900005D224F4705000F5E05004900FE01A4886
:1021A0001A492844884205D224F4705000F5C050E2
:1021B000049004E024F4705000F5A0500490F168FD
:1021C0000498C8604FF40050F168486106B00120DF
:1021D00070BD0000401E1BFF40420F00E0C8100011
:1021E0002013FBFE20D61300006A180000D3CEFE99
:1021F00040771B00C05BB3FEC091210040AC2700BC
:10220000C01D6AFE40E13300803C36FEE09C410088
:102210002DE9F84F0546002400200090284603F0E1
:1022200068FD0646300068D001274FF008084FF0DF
:1022300010094FF0400A4FF0020B16F0010F58D072
:10224000E1B2284600F038FA009010F0010F1CD0DF
:1022500007FA04F12869426B22EA01014163009701
:1022600005EB8400806987602548E1B20068426818
:1022700028469047E878012807D134B995F811012C
:10228000042802D1284603F007FB009810F0080F3D
:1022900006D0CDF8008005EB84008069C0F8088086
:1022A000009810F0100F06D0CDF8009005EB8400D8
:1022B0008069C0F80890009810F0400F06D0CDF863
:1022C00000A005EB84008069C0F808A0009810F019
:1022D000020F06D0CDF800B005EB84008069C0F88D
:1022E00008B0009810F0800F03D02146284600F077
:1022F000F1F9641C7608002E9FD10120BDE8F88F0B
:10230000C40600202DE9F04782B0054600240020D5
:102310000190284603F0F3FC0646300057D02E4FBC
:102320004FF001084FF002094FF0080A16F0010FB4
:1023300049D0E1B2284603F0E8FC019010F0010F0B
:1023400027D0CDF8048005EB8400416DC1F80880EA
:10235000E97801290DD1406D0069009004EB8401FA
:1023600005EBC101C0F31200D1F87C23101AC1F8AB
:102370008C033868E1B2026828469047E878012863
:1023800007D134B995F81101052802D1284603F088
:1023900083FA019810F0020F06D0CDF8049005EBF7
:1023A0008400406DC0F80890019810F0080F0AD022
:1023B0003868816828468847CDF804A005EB84007A
:1023C000406DC0F808A0641C7608002EAED102B0A3
:1023D0000120BDE8F0870000C406002038B504469F
:1023E000A07A002808D0D4F80C01016821F002017D
:1023F00021F00101009101602069416821F0010193
:102400004160054800688169204688474FF00040D8
:10241000E1684861012038BDC406002070B582B073
:10242000054610200190E868816921F01001816162
:10243000E868006A009000F00F0101EB810105EBF4
:10244000C10101F55D74C0F34341072923D2DFE8E0
:1024500001F0222204222222160047F6F0710842DF
:1024600019D0C0F30A1632462846E16803F055FC3D
:10247000E0683044E060A0693044A0610BE00822CD
:1024800005F2CC51284603F048FC0099A069C1F33D
:102490000A110844A061E868816941F01001816176
:1024A00002B0012070BD000010B50446044920466A
:1024B0000968C96888470821E0684161012010BDAA
:1024C000C406002010B584B004460020009094F8A3
:1024D000120100901748006841692046884720692A
:1024E000806801904FF400610391E2685161A17A24
:1024F000E9B110F0010F1AD094F81501012816D196
:102500009DF80000032812D1D4F80C01016841F0B5
:102510000101016003200290D4F80C01016841F030
:10252000030101600448016841F00601016004B044
:10253000012010BDC406002010ED00E070B586B08B
:1025400004460025059504950395029500950126FE
:1025500001962069416821F0010141600021204677
:1025600003F06EFB0020617800290AD9FF2204EBFA
:1025700080018B699A60496D8A60401C6178814254
:10258000F5D821694FF0FF308861ADF81460ADF8DF
:10259000166021690598C86145F0080040F0010007
:1025A00040F002002169486145F0010040F0080058
:1025B00040F00200216908612069016821F4FE6190
:1025C0000160204603F068F94FF48050E1684861EB
:1025D0000348006801692046884706B0012070BDA5
:1025E000C406002010B50446204603F0A9FB4FF0B6
:1025F000010C84F812C1002084F8140100226178D3
:102600004023002911D902EB820104EBC10101F53D
:102610008E7181F801C00A70CA80C8708B60C86072
:102620004861521C61789142EDD8002261780029FE
:1026300010D902EB820104EBC10101F55D71487014
:102640000A70CA80C8708B60C8604861521C61788B
:102650009142EED8204603F06DF8204602F03EFF8E
:102660000021204603F0D6FB204602F08BFF2046D7
:10267000BDE8104003F0BABA10B50446054920463B
:102680000968C96988474FF48011E06841610120F9
:1026900010BD0000C406002010B5044605492046C0
:1026A0000968096A88474FF40011E0684161012018
:1026B00010BD0000C406002002691369526BCA40B5
:1026C00002F0010243EAC21200EB810080698068D7
:1026D000104070472DE9F84F06460F460020009045
:1026E00007EB870006EBC00000F58E74A1696069F6
:1026F000401AA168814200D20846C01C4FEA900AE5
:1027000006EB8708D8F81800806900904FF001099F
:1027100022E0151AA268AA4200D21546E81C4FEA28
:10272000900AABB2FAB23046E16803F08EFBE06883
:102730002844E060A0692844A061D8F8181089698D
:1027400000916169814207D1207809FA00F130696E
:10275000426B22EA01014163009880B2504505D9DD
:102760006269A069904201D2002AD2D10120BDE85D
:10277000F88F000070B50A4D0A4C2946204600F03B
:1027800051F901280BD1084A10700021204600F0B1
:102790003DF829462046BDE8704000F01FB870BDE6
:1027A00000800028B8640240CC000020074A904214
:1027B00001D2074800E00748074A11F0005F01EA2C
:1027C000020101D0C160704781607047106402400F
:1027D00000600240006402407D0F7D0F074A904276
:1027E00001D2074800E00748074A11F0005F01EAFC
:1027F000020101D0C16070478160704710640240DF
:1028000000600240006402407D0F7D0F002904D06B
:10281000016841F0010101607047016821F0010188
:10282000016070472DE9F003016821F001010160AA
:102830000021016041608160C1600161212141612D
:10284000444A45494FF03D08904204D1C1F8088000
:10285000BDE8F0037047414A4FF47464904203D1DD
:102860008C60BDE8F00370473D4A4FF47415904208
:1028700003D18D60BDE8F00370473A4A4FF07466AB
:10288000904203D18E60BDE8F0037047364B374A63
:10289000984203D1CA60BDE8F0037047DFF8D0C0AA
:1028A000344B604503D1CB60BDE8F0037047324F35
:1028B000DFF8C8C0B84204D1C1F80CC0BDE8F003CD
:1028C0007047DFF8BC904FF03D57484503D1CF60CB
:1028D000BDE8F0037047DFF8AC902B49484504D1C0
:1028E000C1F80080BDE8F0037047DFF8A0804045E4
:1028F00003D10C60BDE8F0037047254CA04203D122
:102900000D60BDE8F0037047224CA04203D10E6079
:10291000BDE8F0037047204C2049A04203D10A6073
:10292000BDE8F00370471E4A904203D10B60BDE83A
:10293000F00370471B4A904204D1C1F800C0BDE8C3
:10294000F0037047184A9042F9D10F60BDE8F003D8
:1029500070470000106002400060024028600240A2
:102960004060024058600240706002403D0000201C
:1029700088600240400F0020A060024000003D201F
:10298000B8600240106402400864024028640240BB
:102990004064024058640240706402400C6402408B
:1029A00088640240A0640240B864024010B509493E
:1029B0000A78002A0CD000220A70074C81B2204607
:1029C00000F0BCF82046BDE810400121FFF71EBF13
:1029D00010BD0000CC000020B8640240002904D0E3
:1029E000016841F4802101607047016821F4802171
:1029F00001607047002A04D0026842F4002202609D
:102A000003E0026822F4002202600161704740681E
:102A100080B2704701460020096811F4002F00D0F1
:102A2000012070470023134A904201D2124A00E06D
:102A3000124ADFF84CC011EA0C0F07D04FF01E0C01
:102A40000CEAD12C006800EA0C0002E0406900F0BA
:102A5000800011F0005F01D0526800E01268DFF8DA
:102A600024C002EA0C020A4201D000B10123184638
:102A700070470000106402400060024000640240A1
:102A80003C0F3C0F7D0F7D0F11F0800F09D022B15C
:102A9000436943F08003436103E0436923F080030B
:102AA0004361802905D001F01E011AB1026811436B
:102AB00001607047026822EA01010160704700006E
:102AC00010B402681C4B1A40D1F80CC00B688C691A
:102AD00043EA0C03D1F814C04CEA040C43EA0C039B
:102AE000D1F81CC043EA0C03D1F820C043EA0C0320
:102AF000D1F824C043EA0C03D1F828C043EA0C0300
:102B0000D1F834C043EA0C03D1F838C043EA0C03CF
:102B10001A430260426922F00702D1F830C0CB6A42
:102B200043EA0C031A4342610A6942604A688260C0
:102B30008968C16010BC70473F801CF041607047DD
:102B400081B00A49496800910168009A511A00EE63
:102B5000101A0749F8EE400A91ED010AB8EE401A42
:102B600080EE810A0099016001B07047001000E01A
:102B7000D40000200A490A6842F080720A600949BC
:102B800000224A600B6843F001030B600649414391
:102B90000648416082609FED060A80ED030A704797
:102BA000FCED00E0001000E040420F00D4000020E7
:102BB00000000000002203680B6043684B608368DC
:102BC0008B60C068C860054801EB020C835C8CF820
:102BD0001030521CD2B2042AF6D3704780EE00089F
:102BE0007047000070B586B00121032000F0BAFDE7
:102BF0000121102000F0EEFD00248DF81640012088
:102C00008DF8170002258DF815508DF814504002EC
:102C10000490254E04A9304600F0A2FA8DF8145015
:102C200080210491214D04A9284600F099FA072239
:102C30001146284600F0DFFA07220921304600F04D
:102C4000DAFA1B480090ADF80440ADF80640ADF844
:102C50000840ADF80C400C20ADF80A00154C694650
:102C6000204601F0FDFD4021204601F019FD202104
:102C7000204601F015FD012240F22441204601F0DA
:102C8000D1FD01228021204601F024FD01224021B6
:102C9000204601F01FFD00F07BF80121204601F0E5
:102CA0000DFD06B070BD00000000024000040240AF
:102CB00080841E00001001402DE9F0438FB00121F7
:102CC000880500F04FFDDFF8B49000214846FFF77B
:102CD0009DFD4846FFF7A6FD4FF000660096284F81
:102CE000019728480290402003904FF01408CDF837
:102CF0001080002405940501069507940894099412
:102D0000C0020A900B9403200C900D940E94694617
:102D10004846FFF7D5FE4FF020514846FFF746FDE5
:102D2000012210214846FFF7AFFEDFF85C9000213A
:102D30004846FFF76BFD4846FFF774FD0096019784
:102D4000124802900394CDF81080059406950794DC
:102D50000894A810099000020A900B9401200C908E
:102D60000D940E9469464846FFF7AAFE0121484695
:102D7000FFF74CFD0FB0BDE8F0830000B8640240DF
:102D800004100140340D002088640240480D0020EA
:102D900038B546208DF8000001208DF80100002490
:102DA0008DF802408DF80300684600F049FC2520AC
:102DB0008DF800008DF80140684600F041FC38BDF8
:102DC00010B5012000F02AF8012813D10A2005F0DF
:102DD000CDFC01210A4800F01FFA58B909480188C2
:102DE00009480160094909884160012101720C21EB
:102DF000FEF7A2FABDE81040012000F009B800007B
:102E000000000240101B0020001C0020D41A0020EB
:102E10000149086070470000143C01400146002051
:102E2000024A12680A4200D001207047143C014057
:102E3000214A83790168002B34D0136823EA010109
:102E40001160111D0A6803689A430A60017901F153
:102E5000804101F59E310A6803681A430A60174BE6
:102E600019680268914319601A1D1168D0F800C0F2
:102E700021EA0C0111604179102908D001F180414B
:102E800001F59E310A6800681043086070471968B0
:102E9000D0F800C041EA0C011960116800680843CD
:102EA00010607047007900F1804000F59E300268A4
:102EB00022EA010101607047003C0140083C0140EA
:102EC00001490860704700000C3C02400649002898
:102ED00004D0086840F4806008607047086820F4F7
:102EE0008060086070470000003C024070B50646F4
:102EF0000025002905D0012927D0022928D04FF428
:102F0000407500F085F809281ED1134C206820F484
:102F100040702060206828432060206820F0F8007E
:102F20002060206846F0020108432060206840F4D9
:102F30008030206000F06CF8216821F002012160EF
:102F4000216821F0F801216070BD4FF48075D8E749
:102F50004FF40075D5E70000103C024009200F49EE
:102F60000A6812F4803F01D0012070470A6812F00D
:102F7000100F01D0062070470A6812F4807F01D03C
:102F8000022070470A6812F0E00F01D00720704756
:102F9000096811F0020FFAD0082070470C3C02407B
:102FA0000248016841F0004101607047103C024056
:102FB00070B505460E4600F02BF8092811D1094CD2
:102FC000206820F44070206020682060206840F075
:102FD000010020602E7000F01BF8216821F0010133
:102FE000216070BD103C02400548006810F0004FA1
:102FF00004D005480349016004490160704700009E
:10300000103C024023016745043C0240AB89EFCDF0
:1030100008B509200090FFF7A1FF00909DF800007F
:10302000012806D1FFF79AFF00909DF800000128C3
:10303000F8D09DF8000008BD10B5FDF760FB41EC2D
:10304000100B53EC102B9FED080B51EC100BFDF700
:10305000D6FA9FED071B53EC112BFDF75EFABDE886
:103060001040FDF759BB0000000000000000F03FD9
:103070000000000000408F40F0B583B001210846F9
:1030800000F070FB0121022000F06CFB0121042004
:1030900000F068FB0121082000F064FB01212020E2
:1030A00000F060FB0121402000F05CFB012180204A
:1030B00000F058FB0121080200F054FB4FF4E050EF
:1030C000009001248DF804408DF8074000258DF80C
:1030D00006508DF805501F4E6946304600F040F806
:1030E0002103304600F0A1F800948DF804508DF8CB
:1030F0000740194F6946384600F032F8102000901A
:103100008DF804408DF807408DF8065002268DF8A2
:1031100005606946384600F023F81021384600F073
:1031200084F800948DF804408DF807408DF806501F
:103130008DF80560094C6946204600F011F8012120
:10314000204600F072F8FDF72DFF00F028FA03B0DA
:10315000F0BD0000001C02400000024000040240DC
:103160002DE9F00100220126032706FA02FC0B6874
:1031700003EA0C03634538D10568530007FA03F4EA
:10318000A54305600D79D0F800809D4045EA08050B
:1031900005600D79012D01D0022D17D18568A54359
:1031A00085604D79D0F808809D4045EA0805856026
:1031B000456825EA0C0CC0F804C0D0F804C08D792D
:1031C0009540ADB24CEA050CC0F804C0D0F80CC074
:1031D0002CEA040CC0F80CC091F807C00CFA03F3F9
:1031E000D0F80CC043EA0C03C360521C102ABCD3B5
:1031F000BDE8F00170474B07DB0E9A40C90800EBB1
:103200008100016A4FF00F0C0CFA03F3994301623D
:10321000016A1143016270470246002012690A42A6
:1032200000D00120704741837047018370470146F9
:103230000020A1F10062B2F5804F05D3A2F58040D5
:10324000B0F5804F01D208207047A1F10060A0F5D1
:103250000040B0F5804F01D210207047A1F100600E
:10326000A0F54040B0F5804F01D218207047A1F181
:103270000060A0F58030B0F5803F01D2202070477B
:10328000A1F10060A0F50030B0F5003F01D2282088
:103290007047A1F10060A0F58020B0F5003F01D299
:1032A00030207047A1F10060A0F5C020B0F5003FCC
:1032B00001D238207047A1F10060A0F50020B0F5E0
:1032C000003F01D240207047A1F10060A0F520200E
:1032D000B0F5003F01D248207047A1F10060A0F591
:1032E0004020B0F5003F01D250207047A1F10060AE
:1032F000A0F56020B0F5003F01D258207047A1F141
:103300000160B0F5804F01D280207047A1F10060CC
:10331000A0F58210B0F5804F01D288207047A1F14E
:103320000060A0F58410B0F5804F01D29020704766
:10333000A1F10060A0F58610B0F5804F01D2982071
:103340007047A1F10060A0F58810B0F5803F01D270
:10335000A0207047A1F10060A0F59010B0F5003FEB
:1033600001D2A8207047A1F10060A0F5A010B0F52F
:10337000003F01D2B0207047A1F10060A0F5B0106D
:10338000B0F5003F01D2B8207047A1F10060A0F570
:10339000C010B0F5003F01D2C0207047A1F100601D
:1033A000A0F5D010B0F5003F01D2C8207047A1F1C0
:1033B0000060A0F5E010B0F5003F01D2D0207047CA
:1033C000D820704770B504460D4608F035F82060E7
:1033D000A188401A80B2FFF72FFE28602068606045
:1033E00070BD000070B50B480168001D0568001D28
:1033F0000068084400280CD0074C0822A11C00F0EB
:10340000AFF804F112012846BDE87040042200F034
:10341000A7B870BD107AFF1F8200002001484068E5
:10342000704700001400002005484168491C4160B5
:103430004168B1F1FF3F01D10021416070470000B8
:1034400014000020F0B41D4C2178002933D1E1682C
:103450000025B1F5006F00D1E560A268E1689142F6
:1034600029D003D9C1F50062226102E0A2EB01027A
:10347000226122694FF00106402A09D91FFA81FC16
:1034800040234031E160A2F140012161267008E053
:103490001FFA81FC93B21144E1602561402B07D0F3
:1034A00026700749F0BC01EB0C028121FEF7D7BD65
:1034B00002212170F5E7F0BC7047000000060020F3
:1034C00010380020FEE770B505460C4645F2555011
:1034D00000F02AF8284600F01BF8204600F01EF8FD
:1034E00000F00EF8BDE87040AFF3008002494CF6E2
:1034F000CC4008607047000000300040AFF300800F
:1035000002494AF6AA2008607047000000300040D7
:103510000149486070470000003000400149886060
:10352000704700000030004001490860704700000B
:103530000030004007480178502909D141784F29CF
:1035400006D18078532803D104490348896AC160B1
:1035500070470000480D0020901E0020240D002020
:10356000F0B40023002A18D90A24302537269C46B7
:10357000B4EB107F04D905EB107701F8137003E06A
:1035800006EB107701F81370000101EB430787F891
:1035900001C05B1CDBB29342EAD3F0BC704710B5AC
:1035A00084B00121880300F015F90021084600F0DD
:1035B0001BFB06208DF8080001248DF8094002202D
:1035C0008DF80A008DF80B4002A800F039F800943D
:1035D00000208DF8040010208DF805008DF80640BD
:1035E0006846FFF725FC04B010BD000002490878CA
:1035F00000220A707047000014000020D0ED020A7B
:10360000B1EE601A61EE201A90ED001A31EE400A18
:1036100061EE801AB0EE000A60EE800A90ED010AB9
:1036200040EEC01AD0ED030A00EE201A80ED001A19
:1036300001EEA00A80ED010A7047FEE77047000026
:1036400010B44FF00F0CC27801240178002A23D067
:10365000174A126802F4E062C2F5E062C2F3072280
:10366000C2F104032CFA02FC42789A40837803EA00
:103670000C031A43120101F1E02181F800240078C3
:1036800000F01F0104FA01F14009800000F1E02080
:10369000C0F8001110BC704701F01F0004FA00F0E0
:1036A0004909890001F1E021C1F8800110BC70478F
:1036B0000CED00E0034940F0FD7040F080600860D0
:1036C000704700000CED00E0014801F066BB00000F
:1036D000F00600209FED060A80ED080A80ED0A0A38
:1036E00080ED0B0A80ED020A80ED030A70470000AE
:1036F0000000000010B504462DED048BB0EE408AAA
:10370000F0EE608AB0EE419A1448002B0DD0206490
:10371000B0EE491AF0EE680AB0EE480ABDEC048B30
:103720002046BDE8104007F0B1BF20640C4860643B
:10373000B0EE491AF0EE680AB0EE480A204607F0EB
:10374000A5FF616CB0EE491AF0EE680AB0EE480AC7
:10375000BDEC048B2046BDE8104008478DB600083C
:10376000A9B60008054A002903D011680843106073
:103770007047116821EA000010607047303802403D
:10378000054A002903D0116808431060704711688A
:1037900021EA00001060704734380240054A0029D1
:1037A00003D01168084310607047116821EA0000D7
:1037B0001060704740380240054A002903D0116864
:1037C000084310607047116821EA000010607047DC
:1037D00020380240054A002903D0116808431060D0
:1037E0007047116821EA00001060704744380240B9
:1037F000054A002903D0116808431060704711681A
:1038000021EA000010607047243802400248016835
:1038100041F08071016070477438024030B4DFF8C5
:103820009CC0DCF8001001F00C01254D002923D0CC
:10383000244C042922D0082922D00560DCF800108D
:1038400001F0F0010909204B595C026822FA01F1EC
:103850004160DCF8002002F4E052920A9A5C21FAFE
:1038600002F28260DCF8002002F46042520B9A5CA3
:10387000D140C16030BC70470560DFE70460DDE720
:10388000124A1168C1F38053116801F03F0133B14E
:10389000B4FBF1F11368C3F38813594305E0B5FB9A
:1038A000F1F11368C3F3881359431268C2F301425C
:1038B000521C5200B1FBF2F10160BFE70838024030
:1038C0000024F400001BB700B800002004380240B8
:1038D0000022410901290DD002290ED008490968AA
:1038E00000F01F00012303FA00F0084200D001227B
:1038F0001046704703490968F2E703490968EFE792
:10390000743802400038024070380240002904D068
:10391000018841F0400101807047018821F0400199
:10392000018070472DE9F04389B001210846FFF777
:1039300019FF01210220FFF715FF01210803FFF7FE
:1039400049FFDFF8B890052204214846FFF753FCF1
:10395000052203214846FFF74EFCDFF8A48005222C
:1039600007214046FFF747FC1820069002268DF8F5
:103970001C6000248DF81E4001258DF81F50032780
:103980008DF81D7006A94846FFF7EAFB8DF81C600C
:103990008DF81E408DF81F508DF81D708020069008
:1039A00006A94046FFF7DCFB4FF48270ADF8060035
:1039B000ADF80440ADF80840ADF80A60ADF80C5021
:1039C0006802ADF80E002820ADF81000ADF81240E6
:1039D0000720ADF814000B4CA088A080208820F4AC
:1039E0000050208001A9204600F00EF80121204659
:1039F000FFF78CFF09B0BDE8F0830000000402402F
:103A0000000002400030014010B4028802F441522C
:103A10000B88B1F802C0CC8843EA0C03B1F804C0AB
:103A20004CEA040C43EA0C03B1F808C043EA0C0367
:103A3000B1F80AC043EA0C03B1F80CC043EA0C0326
:103A4000B1F80EC043EA0C031A430280828B22F4C1
:103A500000628283098A018210BC704710B5594CFC
:103A6000A0F18042B2F5C84216D0B2F580626BD1A7
:103A70000A68A2F50070013877D0012875D00228B5
:103A80007ED0B0F5807F5FD14F4804F04DFFBDE898
:103A90001040062004F0B4BF0868B0F5017F08D0DC
:103AA00018DCA0F50072013A03D0012A01D0022AE5
:103AB0004AD1A0F20120C0B22070C0EB00124348EE
:103AC00000EB82008269531C8361322A3DD805F0E5
:103AD000BDFB3CE0A0F5007005383ED00C2833D18A
:103AE0003B48C17A027B41EA022100EE101A3A49B2
:103AF000F8EE400A9FED370A80EE801A81ED0C1A2D
:103B0000427B837B42EA032200EE902AF8EE600AB1
:103B100080EE801A81ED0D1AC27B037C42EA0322FB
:103B200000EE902AF8EE600A80EE801A81ED0E1AFF
:103B3000427C807C42EA002000EE900AF8EE600AA7
:103B400080EE801A81ED0F1A10BD04F0EDFE207892
:103B5000BDE81040401C04F053BF204804F0E4FED0
:103B6000BDE81040052004F04BBFA2F20120C0B216
:103B70006070C0EB00121A4800EB8200826900E01E
:103B80000EE0531C8361322A02D805F05FFB01E08E
:103B900004F0CAFE6078BDE81040083004F030BF81
:103BA000104A9069431C9361322803D8104605F0EF
:103BB0004DFB02E00B4804F0B7FEBDE810400720C3
:103BC00004F01EBFD0000020D41A0020E419002009
:103BD000BC1900200000C8424C1C0020101B002013
:103BE000881B00204C1B00208A07120F0F239340D4
:103BF00021F0030101F1804101F59831D1F808C8A5
:103C00002CEA0303C1F80838D1F80838904018436B
:103C1000C1F808087047000082B0002201920092AB
:103C20002749086840F480300860086800F40030D4
:103C300000900198401C0190009818B90198B0F5C7
:103C4000A04FF2D1086810F4003F02D0012000908C
:103C500000E000920098012830D11A48026842F032
:103C6000805202601848026842F4404202601748DD
:103C700002680260026842F400420260026842F494
:103C8000A0520260021F124B13600A6842F0807259
:103C90000A600A6812F0007FFBD00E4A40F20571FC
:103CA0001160016821F003010160016841F0020127
:103CB0000160016801F00C010829FAD102B07047D7
:103CC000003802404038024000700040083802408E
:103CD0000C544007003C0240BFF34F8F044801687A
:103CE000044A01F4E06111430160BFF34F8FFEE726
:103CF0000CED00E00400FA054FF0E021042804D0A8
:103D0000086920F0040008617047086940F0040069
:103D10000861704710B50AF013FD012803D0BDE813
:103D200010400AF0EDB810BD10B504466FF0040065
:103D3000FFF7E2FF0649E008087000EB4002C2EB23
:103D4000C0104FF6FF7202EAC000488010BD0000AC
:103D5000C800002010B51148016841F470010160ED
:103D60000F48016841F0010101600E4A0021116015
:103D7000026822F4102222F080720260031D0A4AB7
:103D80001A60026822F48022026008480160FFF78E
:103D900043FF07494FF00060086010BD88ED00E068
:103DA0000038024008380240103000240C3802402D
:103DB00008ED00E000B583B0022105480A02009139
:103DC0000190002303A106480AF05AFB03B000BD8E
:103DD0001C00002073746172745F7461736B000067
:103DE00049D0000810B5084C0121204600F0D9F850
:103DF00020B1FFF719FB0549012008702046BDE8F6
:103E00001040012100F0AEB800080040140000206E
:103E10002DE9F0418AB007460D4601210802FFF75F
:103E2000A1FC01210220FFF7D5FCDFF8B0800322BE
:103E300007214046FFF7DFF98020089002208DF827
:103E4000240001268DF8276000248DF826400322E7
:103E50008DF8252008A94046FFF782F90697ADF8AE
:103E60001450ADF81C40ADF816401D4D05A928466C
:103E700000F08CF9684600F07FF96021ADF8001081
:103E8000ADF80C40ADF802604FF4FA61029169465A
:103E9000284600F09CF86946284600F0D4F86946A8
:103EA000284600F01FF90821284600F0C6F808212E
:103EB000284600F00DF90821284600F057F90121A5
:103EC000284600F00FF80121284600F05AF8012199
:103ED000284600F04AF80AB0BDE8F0810020024010
:103EE00000040140002904D0018841F080010180D4
:103EF0007047018821F080010180704730B585B09E
:103F000004460D4601210420FFF748FC0394ADF858
:103F100008500024ADF81040ADF80A40104D02A939
:103F2000284600F033F901221146284600F044F8F3
:103F30000121284600F016F81E218DF804108DF896
:103F400005408DF8064001218DF8071001A8FFF704
:103F500077FB0121284600F008F805B030BD0000CD
:103F600000080040C94301827047002904D001883D
:103F700041F0010101807047018821F001010180B9
:103F80007047002906D0B0F8441041F40041A0F871
:103F900044107047B0F84410C1F30E01A0F844106B
:103FA00070470022038A0B4080890840002B01D013
:103FB00000B1012210467047002A03D082891143C4
:103FC00081817047828922EA01018181704710B4A2
:103FD000028C22F001020284028C8388B0F818C09F
:103FE0002CF0700C2CF0030C0C8844EA0C0C22F022
:103FF00002028C8922434C882243A0F18044B4F50C
:10400000803402D0B4F580640FD122F00802CC894C
:10401000224322F004028C88224323F4807323F489
:1040200000730C8A23434C8A23438380A0F818C072
:1040300089684163028410BC7047028B22F0080239
:1040400011430183704730B4028C22F010020284C5
:10405000028C8388B0F818C02CF4E04C2CF4407427
:104060000D884FF6FF7C0CEA05252C4322F0200238
:104070008D890CEA05152A434D880CEA05152A435B
:10408000A0F18045B5F5803502D0B5F5806518D131
:1040900022F08002CD890CEA05152A4322F0400265
:1040A0008D880CEA05152A4323F4806323F400630A
:1040B0000D8A0CEA85052B434D8A0CEA850C4CEAE7
:1040C00003038380048389688163028430BC704762
:1040D000028B22F400624FF6FF7303EA01211143C1
:1040E0000183704730B4028C22F480720284028C07
:1040F0008388B0F81CC02CF0700C2CF0030C0C88DA
:1041000044EA0C0422F400728D894FF6FF7C0CEA1D
:1041100005252A434D880CEA05252A43A0F1804550
:10412000B5F5803502D0B5F5806518D122F400626E
:10413000CD890CEA05252A4322F480628D880CEA99
:1041400005252A4323F4805323F400530D8A0CEAF7
:1041500005152B434D8A0CEA051C4CEA03038380AA
:1041600084838968C163028430BC7047828B22F0EB
:1041700008021143818370470021018041808180C2
:1041800081608181C18101824182704710B40288BF
:10419000194BDFF868C098420FD060450DD0B0F1E0
:1041A000804F0AD0A0F18044B4F5806405D0B4F506
:1041B000806402D0B4F5806403D122F070024C8890
:1041C0002243A0F18044B4F5805406D0B4F5806455
:1041D00003D022F440720C89224302804A68C262F2
:1041E0000A880285984201D0604501D1897A01860A
:1041F0000121818210BC7047000001400004014091
:1042000070B5114C40F22441204600F0E7FA012835
:1042100018D10E4948700E4D00212846FEF7F6FAD7
:1042200014212846FEF78AFC204600F07FFB01217E
:104230002846FEF7EBFA2046BDE8704040F22441E4
:1042400000F033BA70BD000000100140CC00002027
:104250008864024070B584B001210846FFF782FAF5
:1042600001210420FFF77EFA01218804FFF796FA66
:1042700001218804FFF7A0FA00214FF48020FFF706
:104280009BFA264E07220B213046FEF7B4FFF114AD
:10429000029102218DF80C1000248DF80E400125AA
:1042A0008DF80F5003218DF80D1002A93046FEF74E
:1042B00057FF1B4E304600F018FA1B49194808609A
:1042C0008C80CC80A8020881042048818C813046F3
:1042D00000F0C6FA0121304600F0F0F91021304616
:1042E00000F0DEF91021304600F0DFF9012240F243
:1042F0002441304600F096FA27208DF8040005206E
:104300008DF805008DF806408DF8075001A8FFF7DD
:1043100097F900F00BF804B070BD000000080240EF
:1043200000480040A0860100240D002030B58FB069
:1043300001214805FFF716FA012240211B4800F031
:10434000C9F91B4D2846FEF76DFA4FF0006000904A
:1043500018480190184C02940021039124200490E5
:1043600005912815069007910891801009900A91EF
:104370000B9103200C900D910E9169462846FEF793
:104380009FFB002204F124012846FEF733FB0121A4
:104390002846FEF723FB00212846FEF737FA0121C5
:1043A0002846FEF733FA0FB030BD00000048004049
:1043B0002860024004480040720D00202DE9F041C1
:1043C000374E1021304600F002FA002866D040F245
:1043D0002441304600F002FA00285FD0304600F059
:1043E000A5FADFF8C0804046FEF714FB2E4C2F4D97
:1043F0002F4F68B100214046FEF708FA2D48FEF71E
:1044000006FBC0F1240082B22280242A25D02BE0B2
:1044100000214046FEF7FAF94046FEF7F8FAC0F1EF
:10442000240082B22280242A06D12349234807F09F
:1044300037FF0A2004F0E4FA24214046FEF77EFB11
:10444000A86A40F40020A86239464046FEF7AEF95B
:1044500001214046FEF7DAF916E01949174807F03E
:104460001FFF0A2004F0CCFA24214046FEF766FB29
:10447000A86A20F40020A86239464046FEF796F963
:1044800001214046FEF7C2F91021304600F008F93C
:104490003046BDE8F041102100F007B9BDE8F081D9
:1044A0000048004028600240CE000020006002402A
:1044B0000000301040600240720D00205C0D0020B2
:1044C000960D002030B589B001214020FFF74AF950
:1044D00001212020FFF77EF901212020FFF788F934
:1044E00000212020FFF784F9294D08220E212846BB
:1044F000FEF781FE082209212846FEF77CFE4FF4D4
:104500008441069102218DF81C1000248DF81E4074
:104510008DF81F4003218DF81D1006A92846FEF7CF
:104520001FFE1C4D284600F0E0F84FF4E1310291E7
:10453000ADF80C40ADF80E40ADF810400C21ADF8D0
:104540001210ADF8144002A9284600F089F9102194
:10455000284600F0A5F8012240F22441284600F048
:1045600061F90121284600F0A9F847208DF80400E0
:1045700005208DF805008DF8064001208DF8070014
:1045800001A8FFF75DF800F007F809B030BD0000A2
:10459000001802400014014030B58FB00121880599
:1045A000FFF7E0F801224021194800F093F8194D77
:1045B0002846FEF737F9A805009017480190174CD8
:1045C000029400210391021504920591069207912D
:1045D000089109910A910B9103200C900D910E9175
:1045E00069462846FEF76CFA002204F580612846E9
:1045F000FEF700FA01212846FEF7F0F900212846CF
:10460000FEF704F901212846FEF700F90FB030BD8E
:10461000001401402864024004140140BA0D002037
:1046200010B582B0002001901A4C1021204600F0F5
:10463000CEF800282BD040F22441204600F0CEF8DE
:10464000002824D0204600F071F91021204600F007
:1046500027F840F22551204600F027F80B2004F0FF
:10466000CFF90D480068002811D001A9009100235E
:104670000122022109F0A0FF0198002807D0074974
:104680004FF080500860BFF34F8FBFF36F8F02B0C1
:1046900010BD0000001401404400002004ED00E0C3
:1046A00001F40072C9430180704740F66A12090A9A
:1046B000012202FA01F1C94301807047002904D0A8
:1046C000818941F4005181817047818921F4005131
:1046D00081817047002A03D0828A1143818270470A
:1046E000828A22EA01018182704710B5A0F18041DF
:1046F000B1F588311FD011F54C4126D0B1F580615C
:104700002ED0B1F5806136D0B1F580613ED0B1F5E3
:10471000444146D011F51C414DD0B1F5806155D1D1
:104720000121C807FFF748F8BDE8104000214FF00D
:104730000040FFF741B801211020FFF759F8002190
:10474000BDE810401020FFF753B801214804FFF7DF
:1047500033F8BDE8104000214FF40030FFF72CB8CB
:1047600001218804FFF728F8BDE8104000214FF42C
:104770008020FFF721B80121C804FFF71DF8BDE82C
:10478000104000214FF40020FFF716B80121080562
:10479000FFF712F8BDE8104000214FF48010FFF73A
:1047A0000BB801212020FFF723F80021BDE81040BD
:1047B0002020FFF71DB801218807FEF7FDFFBDE8A7
:1047C000104000214FF08040FEF7F6BF10BD0246BA
:1047D000002012880A4200D00120704710B44FF028
:1047E000000C40F66A12C1F3421301F01F020124CB
:1047F00004FA02F2012B0FD0022B10D0838A1A4048
:10480000090A04FA01F10088084012B108B14FF01A
:10481000010C10BC6046704783891A40F0E7038A98
:104820001A40EDE740F66A13C1F3421301F01F018D
:104830004FF0010C0CFA01F1012B07D0022B07D02D
:1048400014303AB102681143016070470C30F8E748
:104850001030F6E7026822EA0101016070470000AB
:1048600030B585B004460D46208A20F44050E988D2
:1048700008432082A08920F4037020F4A050A98866
:104880002A8911436A8910430843A081A08A20F431
:104890004070A9890843A0826846FEF7BFFFA4F1D3
:1048A0008040B0F5883010D0B0F580600DD002980F
:1048B000A18911F4004F0AD000EBC00101EB0010F8
:1048C00029684900B0FBF1F009E00398F0E700EB3C
:1048D000C00101EB001029688900B0FBF1F0124A19
:1048E000A2FB0031490909010B096FF0180C03FB09
:1048F0000CF300EB8300A38913F4004F4FF0320355
:1049000007D003EBC000A2FB0020C0F34210084315
:1049100006E003EB0010A2FB0020C0F343100843A5
:10492000208105B030BD00001F85EB518088C0F3A9
:104930000800704710B5D0F8E42552689047002071
:1049400010BD10B5044694F81201022806D00328C1
:1049500004D02046BDE8104000F023B84888012864
:104960000CD10020C4F81801D4F8E4058268204670
:1049700090472046BDE8104000F053B810BD10B578
:10498000002413460A460021FDF724FB204610BDF3
:1049900010B5002413460A460021FDF760FB2046AF
:1049A00010BD10B5044680212046FDF738FB0021DC
:1049B0002046FDF734FB2046BDE8104000F06CBFF8
:1049C00010B50024C0F89423C0F89023032380F886
:1049D000113113460A460021FDF7FCFA204610BDAE
:1049E00070B504460025052084F8110100231A46FD
:1049F00019462046FDF7EEFA204600F04DFF284606
:104A000070BD10B50024C0F83C21C0F83821022345
:104A100080F8113113460A460021FDF720FB20469D
:104A200010BD70B504460025042084F81101002350
:104A30001A4619462046FDF712FB204600F02CFFCF
:104A4000284670BD70B50546002909D0D5F8E405A3
:104A50004269002A56D095F81201032850D051E03F
:104A600005F58E7495F81101002602283ED1E16902
:104A7000A068814215D9081AE061E878012803D1BD
:104A8000A168E0680844E060A08BE16882B2284633
:104A9000FFF77EFF00231A4619462846FDF79AFACB
:104AA00024E0216AB1FBF0F200FB12128AB98142C4
:104AB0000FD3606A81420CD2002211462846FFF7CC
:104AC00067FF666200231A4619462846FDF782FAF8
:104AD0000CE0D5F8E405C16829B195F81201032866
:104AE00001D1284688472846FFF77AFF95F8160136
:104AF000012807D1284600F0F9F985F8166101E090
:104B000028469047002070BD10B50446002909D002
:104B1000D4F8E4058269002A32D094F812010328FF
:104B20002CD02DE004F55D7194F81101032827D1F4
:104B30008A68C869904213D9801AC861E078012850
:104B400003D18A68C8681044C860CA69886882420C
:104B500000D2104682B2C9682046FFF710FF0FE06E
:104B6000D4F8E405016929B194F81201032801D1B0
:104B7000204688472046FFF754FF01E02046904733
:104B8000002010BD00207047CA88012A01D0FFF71D
:104B900008BF90F81221022A03D0032A05D0FFF79C
:104BA00000BF01220349FFF72CBF012200F58871E5
:104BB000FFF727BFD406002038B504460D46E88825
:104BC00000906888010A08296ED2DFE801F06D04C0
:104BD0000C186D6D6368D4F8EC15A0780A68694606
:104BE0009047014642E0D4F8E415A0788A6A694605
:104BF0009047014602204870C4F8F01536E0C0B274
:104C0000062842D2DFE800F0030B131B232BD4F855
:104C1000EC15A0784A6869469047014626E0D4F82A
:104C2000EC15A0788A686946904701461EE0D4F8E2
:104C3000EC15A078CA6869469047014616E0D4F89A
:104C4000EC15A0780A696946904701460EE0D4F851
:104C5000EC15A0784A6969469047014606E0D4F809
:104C6000EC15A0788A69694690470146BDF80000B6
:104C7000002809D0EA88002A06D0824200D90246DC
:104C800000922046FFF7BDFE38BD29462046FFF7BB
:104C900088FE38BD29462046FFF783FE38BD2946E9
:104CA0002046FFF77EFE38BD29462046FFF779FEF5
:104CB00038BD00210278002A05D0491CC9B2401C29
:104CC0000278002AF9D108467047000090F81221B6
:104CD000022A03D0032A01D0FFF763BE054901224F
:104CE000CA60D0F818210AB10322CA600222024920
:104CF000FFF787BECC060020D806002070B504461A
:104D00000D461646002C19D02046FFF7D2FF02218F
:104D100001EB400030802870032102206970217867
:104D200000290BD0002214F8013B411CC9B22B54BE
:104D3000481CC0B26A5421780029F4D170BD2DE915
:104D4000F0410446069D884617461E46204600F060
:104D500089FB2046FFF716FFC4F8E465C4F8E85560
:104D6000C4F8EC7541462046FDF73CFCD4F8E80554
:104D7000006880472046BDE8F04100F061BB10B5F7
:104D8000D0F8E415096A8847002010BD10B5D0F8A6
:104D9000E415496A8847002010BD70B582B0064608
:104DA0000024304600F097FF002853D0304600F032
:104DB0009BFF0546019000284FD015F4002F03D02B
:104DC0003046FDF79FFA044615F4802F03D0304695
:104DD000FDF71EFA044315F0020F03D002200090E5
:104DE000F168486115F0004F03D03046FDF7F6FA40
:104DF000044315F4006F03D03046FDF763FB044312
:104E000015F0080F03D03046FDF74EFB044315F0B4
:104E1000100F03D03046FDF701FB044315F4805F0B
:104E200003D03046FDF78AFB044315F4005F03D03E
:104E30003046FDF731F9044315F4801F03D03046A6
:104E4000FDF71AFC044315F4001F03D03046FDF7AC
:104E500023FC044302B0204670BD02B0002070BDA8
:104E600090F8CC250A7090F8CD254A7090F8CE25A0
:104E700090F8CF3502EB03224A8090F8D02590F8C5
:104E8000D13502EB03228A8090F8D22590F8D335F1
:104E900002EB032292B2CA80C0F84021012180F8BF
:104EA0001111704710B504460023402219462046D0
:104EB000FDF76EF80023402280212046FDF768F8B8
:104EC000012084F81201D4F8E815A07849688847D1
:104ED000002010BD10B50446D4F8E80500698047ED
:104EE000032084F81201002010BD00000249096867
:104EF0000069416000207047C806002010B5D0F856
:104F0000E415C969002900D08847002010BD70B59C
:104F100004468888002801D1C88820B12046BDE811
:104F20007040FFF73EBD887800F07F0594F81201CD
:104F300003280DD084F8145129462046FDF767F860
:104F40002046FFF76EFD45B1022084F8120170BDC6
:104F50002046BDE87040FFF724BD012084F812010F
:104F600070BD10B50446D4F8E405026820469047A9
:104F7000D4F8E80580688047002010BD70B504466D
:104F80000A46284D91782970022905D92046BDE8A6
:104F900070401146FFF705BD94F81201022807D0B2
:104FA000032818D02046BDE870401146FFF7F9BC31
:104FB00061B184F81011032084F812012046FFF734
:104FC000D0FF2046BDE87040FFF72BBD2046BDE86E
:104FD0007040FFF726BD91B194F8100188421BD0B4
:104FE00001462046FFF7A6FC297884F810112046D8
:104FF000FFF7B7FF2046BDE87040FFF712BD022063
:1050000084F8120184F810112046FFF793FC204623
:10501000BDE87040FFF705BD2046BDE87040FFF7D2
:1050200000BD0000CC06002038B5044648880122A7
:10503000012810D0022841D1888810F0FF0F3DD1FF
:10504000216949680091000A062829D2DFE800F0AA
:10505000280F14191E23C4F81821D4F8E405826817
:10506000204690472046BDE83840FFF7DABC21F0E3
:1050700070001030009017E021F070002030009098
:1050800012E021F07000303000900DE021F070004F
:105090004030009008E021F070005030009003E0B4
:1050A00021F070001030009005480099016084F8EC
:1050B00016212046BDE83840FFF7B3BC38BD0000DC
:1050C000C806002010B582B0044669462046FFF7A6
:1050D000C7FE9DF8002012F01F010BD001290ED051
:1050E000022911D002F080012046FCF798FF02B09F
:1050F000002010BD6946204600F00BF8F7E769462E
:10510000204600F0D7F8F2E76946204600F030F874
:10511000EDE710B5034600244A780A2A22D2DFE8D8
:1051200002F0151D211921090521110D1846FFF75F
:1051300043FD1AE01846FFF7EAFE16E01846FFF7AF
:105140001DFF12E01846FFF71FFD0EE01846FFF79F
:10515000BDFD0AE01846FFF767FF06E01846FFF7B7
:10516000F0FB02E01846FFF71CFC204610BD0000D3
:1051700070B504460D4600262979287800F06000B5
:10518000202807D06878002855D001282FD0032880
:105190005BD107E0D4F8E4052946826820469047B1
:1051A000304670BD94F81201022806D003280CD0B6
:1051B00029462046FFF7F5FB47E0002945D0802926
:1051C00043D02046FCF72BFF3FE0688828B921B187
:1051D000802902D02046FCF722FFD4F8E4052946B6
:1051E0008268204690472046FFF71BFC2DE094F88C
:1051F0001201022806D003280BD029462046FFF7CB
:10520000D0FB22E009B380291FD02046FCF707FF1E
:105210001BE06888C8B951B1802908D02046FCF746
:1052200097FED4F8E4052946826820469047204638
:10523000FFF7F7FB09E094F81201022807D00328D2
:105240000DD029462046FFF7ACFB304670BD002943
:10525000FBD08029F9D02046FCF7E1FEF5E7134AA0
:1052600011F0800F4FF0000C4FF001030DD001F052
:105270007F0000EB800004EBC00090F81E0108B135
:1052800053600DE0C2F804C00AE001EB810004EBBA
:10529000C00090F8760308B1536001E0C2F804C082
:1052A000022203492046FFF7ACFBCEE7CC060020E4
:1052B000D006002070B504460D46002694F8120171
:1052C000032805D029462046FFF76BFB304670BD0A
:1052D000287902280CD8D4F8E405294682682046AB
:1052E0009047E8880028F1D12046FFF79AFBEDE7C8
:1052F00029462046FFF755FBE8E710B590F8121154
:1053000080F81311042180F81211D0F8E805C06864
:105310008047002010BD000010B5002806D00A46C6
:10532000054906A0FFF7EAFC034810BD0A460249FA
:1053300002A0FFF7E3FCF7E7E40C002056435020FF
:10534000436F6E66696700007047704712200880DF
:1053500000487047700000207047704770477047E2
:105360007047000010B5002806D00A46054906A07F
:10537000FFF7C4FC034810BD0A46024902A0FFF72C
:10538000BDFCF7E7E40C002056435020496E7465DD
:105390007266616365000000042008800048704761
:1053A0006C00002010B50A46024903A0FFF7A6FCD6
:1053B000004810BDE40C00204177616B656C696F9B
:1053C0006E00000010B5002806D00A46054906A068
:1053D000FFF794FC034810BD0A46024909A0FFF7F5
:1053E0008DFCF7E7E40C00205669727475616C203F
:1053F000436F6D506F727420696E204653204D6F5D
:10540000646500005669727475616C20436F6D505D
:105410006F727420696E204853206D6F64650000C0
:1054200010B51A200880FDF7DDFF014810BD00000F
:105430008200002043200880004870472806002092
:1054400008B543208DF8000005208DF801000020EC
:105450008DF8020001208DF803006846FEF7F0F891
:1054600008BD000010B582B001218803FEF7B2F933
:1054700001210846FEF776F94FF4C0500090022053
:105480008DF8040003208DF8050000208DF806003B
:105490008DF807000A4C69462046FDF761FE0A2296
:1054A0000B212046FDF7A7FE0A220C212046FDF71E
:1054B000A2FE01218020FEF763F902B010BD0000BA
:1054C000000002404FF47A714843AFF3008000219E
:1054D000A8225043491C8142FCD9704730B583B0A3
:1054E000044600250020029001900090217AE06897
:1054F000012919D0C16841F040010291C1602046E4
:1055000000F0E8F84FF434100190607A10B14FF4D5
:1055100074100190E168019888631420FFF7D2FFAE
:10552000E078012822D02AE0816B21F480310191BA
:10553000627A12B141F48011019101998163E068AE
:10554000C16821F0400121F4800121F4003121F4EF
:1055500000210291C160204600F0BCF8E0780128EB
:10556000DED12A200090E1688860D9E7E068816890
:1055700021F01E010A3141F020010091816003B049
:10558000284630BDF0B587B00446002600250695B4
:10559000049503950295D4F80C0105602069016813
:1055A00021F4C05105910160E07A01282AD103213C
:1055B000204600F08AFBE068802141624020ADF87F
:1055C0001200ADF81010E2680498906200EB1040F1
:1055D000ADF80C00ADF80E10E1680398C1F80401B5
:1055E00000EB1040ADF80C00ADF80E50E1680398E8
:1055F000C1F8080100EB1040ADF80C00E168039819
:10560000C1F80C011021204600F01AFB204600F0E2
:10561000F5FA206905612069456120694FF0FF3185
:1056200081612069C56100206178FF274FF0904CAF
:10563000002915D904EB80018A691368069313F0D9
:10564000004F02D0CDF818C000E00695069B13600D
:105650008A69156189698F60401C61788142E9D847
:1056600000206178002915D904EB80014A6D136888
:10567000009313F0004F02D0CDF800C000E0009579
:10568000009B13604A6D1561496D8F60401C617805
:105690008142E9D84FF4807002902069016941F499
:1056A00080710161E07801280DD103206FF38A0039
:1056B00000F5807040F480306FF3594000F5000031
:1056C000019021690863204600F066FA07B0304671
:1056D000F0BD0000F8B5054600270024002000902A
:1056E000134E0320FFF7F3FEE86800690090641C86
:1056F000B44201D90020F8BD009810F0004FF0D05E
:105700000021009840F0010000900098EA681061C4
:10571000E86802690092491CB14203D8009A12F06D
:10572000010FF6D10320FFF7D2FE3846F8BD000086
:10573000400D03000022C068816821F001018160F2
:105740001046704783B04FF0000C002100910169B2
:105750008968029183691A680192C1F341010029A5
:1057600012D0012910D0022912D003290CD06FF3D6
:105770000A020192019919600069416841F480713F
:105780004160604603B070476FF30A020192F1E78F
:105790006FF30A02D11C0191ECE770B482B00026CD
:1057A0000022019200924A784B69012A19D00A78A6
:1057B00000EB8204626DD2F800C0CDF804C012691B
:1057C0000092002B4DD08B684B6163F3060242F4CC
:1057D00000220092636D009A1A61C278012A47D0B4
:1057E0004CE0826915680195D2F810C0CDF800C070
:1057F00043B18C68A3420BD94C6164F3060CCDF81D
:1058000000C009E02CF07F0343F40023009307E07D
:1058100063F3060CCDF800C0009B43F40023009313
:10582000009B1361C378012B08D191F800C00B696C
:1058300000EB8C0CDCF818C0CCF8143045F0806319
:1058400043F0004301931360C2780ABB4A69FAB17E
:105850000978012202FA01F10069426B11434163A8
:1058600016E00B7A63F3060242F400220092B1E7DD
:105870000B780A6900EB83035B6D5A614CF0806220
:1058800042F000420192097800EB8100406D026015
:1058900002B0304670BC704782B009490191426D38
:1058A0001161C178012909D1426D00F2CC515161D9
:1058B000416D08684FF080200090086002B070478A
:1058C0001800086030B482B04FF0000C0022019242
:1058D00000920B784D78012400EB830204FA03F365
:1058E000012D08D0526DADF802301368019313F406
:1058F000004F04D012E09269ADF80030F5E70C8952
:1059000064F30A03CC7864F39343897961F3995380
:1059100043F0805141F40041019111600069C16977
:10592000009A1143C16102B0604630BC704781B03B
:1059300000230022009291F801C00A78BCF1010F07
:1059400000EB82000AD0406D026822F4001200923F
:10595000C978032904D0022902D004E08069F3E762
:1059600042F08051009100990160184601B07047E3
:1059700010B482B00023019300934C7809784FF063
:10598000010C00EB81020CFA01F1012C0CD0526DDC
:10599000ADF8021013600069C169009A9143C161BA
:1059A00002B0184610BC70479269ADF80010F1E7DC
:1059B00081B002460020002300934B780978012B28
:1059C00002EB810107D0496D0A6842F4001200928F
:1059D0000A6001B070478A691168009111F0004FA8
:1059E00002D041F080410091009941F400110091F2
:1059F000116001B0704770B583B00024002202929C
:105A0000019291F801C00B784A6900EB8303BCF165
:105A1000010F22D0D3F854C0DCF800500295DCF816
:105A200010C0CDF804C0002A7DD08E683244521ECA
:105A3000B2FBF6F262F3DC4CCCF3C942724362F380
:105A4000120CCDF804C0CCF312024A615B6D019ACE
:105A50001A61C278012A70D075E09B691D680295B1
:105A6000D3F810C0CDF804C072B162F3120C8E6886
:105A70003244521EB2FBF6F262F3DC4CCDF804C0A5
:105A8000CA78012A08D00CE06FF3120C6FF3DC4CDB
:105A90000CF50022019204E02CF0C04202F1005209
:105AA0000192019A1A61C278012A11D0CA78012A9A
:105AB0000AD04A6942B10A78012393400269D2F8B8
:105AC00034C04CEA03035363CA78012A07D00FE0BD
:105AD0000B780A6900EB83039B695A61F4E702695A
