:020000040800F2
:1000000048F9012059020008F7390008893800082A
:10001000F3390008A51400080B6C0008000000006C
:10002000000000000000000000000000A101000826
:10003000D12F000800000000F50100084D42000823
:1000400073020008730200087302000873020008BC
:100050007302000873020008D52F0008730200081D
:10006000730200087302000873020008730200089C
:10007000730200087302000873020008730200088C
:10008000730200087302000873020008730200087C
:10009000B515000873020008730200087302000817
:1000A000730200087302000873020008730200085C
:1000B00073020008730200082D4300087302000851
:1000C000730200087302000873020008730200083C
:1000D0007302000849490008730200082D4B00080C
:1000E000730200087302000873020008730200081C
:1000F000730200087302000873020008730200080C
:1001000073020008730200087302000873020008FB
:1001100073020008730200087302000873020008EB
:1001200073020008730200087302000873020008DB
:1001300073020008730200087302000873020008CB
:10014000F51600087302000873020008853A0008DB
:10015000730200087302000873020008994D00083A
:10016000730200087302000873020008730200089B
:100170007302000873020008730200080000000008
:100180007302000873020008DFF810D000F098FC3A
:1001900000480047F9CC0008AFF3008048F901207F
:1001A0002A4B19680868B0E8F04F80F30988BFF35C
:1001B0006F8F4FF0000080F311887047000000003F
:1001C00006480068006880F3088862B661B6BFF32D
:1001D0004F8FBFF36F8F00DF00BF00BF08ED00E05F
:1001E000DFF80C00016841F470010160704700BF46
:1001F00088ED00E0EFF30980BFF36F8F134B1A68AF
:100200001EF0100F08BF20ED108A20E9F04F10609B
:1002100008B44FF0500080F31188BFF34F8FBFF345
:100220006F8F10F02BFA4FF0000080F3118808BC9C
:1002300019680868B0E8F04F1EF0100F08BFB0EC66
:10024000108A80F30988BFF36F8F7047D4000020B5
:10025000EFF30580704700000648804706480047D6
:10026000FEE7FEE7FEE7FEE7FEE7FEE7FEE7FEE766
:10027000FEE7FEE799420008890100089FED1A1A7F
:10028000F5EE000A40EE010ABDEEE00AF5EEC00A06
:1002900010EE100AF1EE10FA38BF401E00EE100A00
:1002A0001349F7EE001AB8EEC00A30EEC00ADFEDCF
:1002B0000F0A20EE200AFCEEC00A10EE900AC0F3EE
:1002C000080000EE900A01EB8000F8EE600A90ED65
:1002D000011A70EE600A90ED000A71EEE01A21EE4C
:1002E000800A00EE810A704783F9223E0000004434
:1002F000201B0108DFED190AB5EEC00A60EE200AE6
:10030000BDEEE01A11EE100AF1EE10FA38BF401EF1
:1003100000EE100A1349F7EE001AB8EEC00A30EEEC
:10032000C00ADFED0F0A60EE200ABCEEE00A10EE14
:10033000100AC0F3080000EE100A01EB8000B8EECE
:10034000400A90ED011A70EEC00A90ED000A71EEBD
:10035000E01A21EE800A00EE810A704783F9223EFE
:1003600000000044201B010840EA01039B0703D062
:1003700009E008C9121F08C0042AFAD203E011F8E4
:10038000013B00F8013B521EF9D27047D2B201E0A6
:1003900000F8012B491EFBD270470022F6E710B58A
:1003A00013460A4604461946FFF7F0FF204610BDE3
:1003B000421C10F8011B0029FBD1801A704703462C
:1003C00011F8012B00F8012B002AF9D118467047CB
:1003D0002DE9FE4F804681EA0300C00F0C460090D5
:1003E00021F0004123F00045B8EB0200A94105D2FD
:1003F0004046214690461C460B46024623F00040EC
:10040000104347D0270DC7F30A00C3F30A510290E7
:10041000401A019040286BDAC3F3130040F4801BAC
:100420000098924620B10023D2EB030A63EB0B0B3A
:1004300001985946C0F14002504600F0E7F90646DF
:100440000D4650465946019A00F0FFF910EB08009E
:100450006141002487EA115284EAE7731A4340D0CD
:10046000009A62B3019A012A4FEA075215DC001B79
:1004700061EB02014FF0004202EA0752CDE900426F
:10048000001C41F5801132462B4600F036FA03B0CD
:10049000BDE8F08F40462146F9E7001B61EB020101
:1004A000001C41F5801300185B412018A2F50017CD
:1004B00047EB030140EAD570B6196D4111E06D08B4
:1004C0004FEA360645EAC0754FEA0752001B61EB5A
:1004D0000201001C41F5801149084FEA3000001963
:1004E000514132462B4603B0BDE8F04F00F0F6B95B
:1004F0000098012240000023D0EB020263EBE0737E
:10050000009821464FEAE074B8EB000061EB04016B
:10051000E9E783F000435BE781F0004158E72DE90C
:10052000FE4F81EA030404F0004421F000410094EE
:100530004FF0000B23F0004350EA01045ED052EA72
:1005400003045BD0C3F30A54C1F30A552C44A4F24C
:10055000F3340194A0FB0254C1F3130141F4801160
:10056000C3F3130343F4801301FB024400FB034E67
:10057000840A970A44EA815447EA8357A4FB076830
:1005800002958D0A05FB07854FEA932C04FB0C545A
:100590002705029D4FEA065847EA1637B5EB0805CE
:1005A0006EEB070C870E920E47EA811742EA831220
:1005B000A7FB0201B6EB0B0164EB00042B0D43EA31
:1005C0000C335E1844EB1C50DA465146E7FB02013F
:1005D000C5F313044FEA0B3343EA14534FEA0432D2
:1005E000019C43EA0603A4F10C040294009CCDE9AB
:1005F00000B400F082F903B0BDE8F08F002001469E
:10060000F9E72DE9F04D81EA030404F0004B21F0F5
:10061000004514464FF0000A23F0004150EA05025D
:1006200020D054EA01021DD0C5F30A570246C5F393
:100630001303C1F31300C1F30A5640F4801543F4C9
:100640008013A7EB0608101BD64608F2FD3873EBA3
:10065000050002D308F1010801E092185B41B8F1EE
:10066000000F03DA00200146BDE8F08D00204FF4B2
:100670008011064684460EE0171B73EB050705D371
:10068000121B63EB050306434CEA010C49084FEAD1
:10069000300092185B4150EA0107EDD152EA0300A5
:1006A00012D082EA040083EA0501084305D0101B3A
:1006B000AB4106D20122002306E000224FF00043A6
:1006C00002E06FF0010253101AEB06004CEB0851E8
:1006D00010EB0A0041EB0B01BDE8F04D00F0FEB855
:1006E0000EB5C10F80EAE0700844CA07002140F24D
:1006F00033438DE80E000A460B4600F0FEF803B0C7
:1007000000BD0EB540F2334102910021CDE9001148
:100710000A460B4600F0F1F803B000BDC1F30A52DF
:1007200010B5C1F3130140F2FF3341F480119A4236
:1007300001DA002010BD40F233439A42A2F2334264
:1007400003DC524200F071F810BD904010BD00F083
:10075000004230F000400AD0C10D01F56071C0F3D5
:10076000160042EA0151C2084007114370470020B9
:100770000146704730B5041E71F1000404DB4FF0F0
:100780000044404264EB0101141E73F1000405DBD8
:100790001C464FF00043524263EB04038B4208BFF8
:1007A000824230BD30B5041E71F1000404DB4FF00D
:1007B0000044404264EB0101141E73F1000405DBA8
:1007C0001C464FF00043524263EB0403994208BFBA
:1007D000904230BD01F0004330B421F0004150EAB6
:1007E000010206D00A0DA2F56072C1F31301002ABE
:1007F00002DC30BC00207047440F44EAC104C10051
:10080000E01830BC00EBC25000F031B8202A04DB05
:10081000203A00FA02F1002070479140C2F1200313
:1008200020FA03F3194390407047202A04DB203A52
:1008300021FA02F00021704721FA02F3D040C2F100
:1008400020029140084319467047202A06DBCB1747
:10085000203A41FA02F043EAE07306E041FA02F37B
:10086000D040C2F120029140084319467047002948
:10087000A8BF7047401C490008BF20F00100704726
:1008800010B4B0FA80FC00FA0CF050EA010404BF86
:1008900010BC704749B1CCF1200421FA04F411FADC
:1008A0000CF118BF012121430843A3EB0C01CB1D20
:1008B0004FEA00614FEA102042BF002010BC704791
:1008C00000EBC35010440029A4BF10BC7047401C6B
:1008D000490008BF20F0010010BC704710B5141E7D
:1008E00073F1000408DA401C41F1000192185B41E9
:1008F0001A4301D120F0010010BD2DE9F04D9246C0
:100900009B4611B1B1FA81F202E0B0FA80F22032D6
:100910009046FFF77BFF04460F4640EA0A0041EA93
:100920000B0153465A46084313D0114653EA0100BF
:1009300019D0C8F140025046FFF777FF05460E4632
:10094000504659464246FFF761FF084305D0012053
:1009500004E020463946BDE8F08D0020054346EA14
:10096000E0762C4337430A986305E40AA0EB0800BD
:100970000022FD0A44EA47540A3002D5002001460D
:10098000E9E7010510196941DDE9084500196941E8
:10099000BDE8F04DA2E72DE9F04D00231A461B1AE1
:1009A0008A4103DB00200146BDE8F08DC1F30A5205
:1009B000C1F3130141F480154FF0000BD10702D1B0
:1009C00000186D41521E0027044640F2FF113846C0
:1009D00001EB620A3E468046024600204FF4801139
:1009E000FFF723FFC2197141BB1846EB0100B4EBBE
:1009F000030C75EB000C04D3E41A65EB00051746F5
:100A00000E46241908F101006D4180463428E3DDCB
:100A1000F91946EB0600091BA84103D24FF0FF323B
:100A2000134601E0002213461BEB070046EB0A5178
:100A3000BDE8F04DFFF752BF2DE9FE4FC3F30A5753
:100A400001F000450024C1F30A56C3F31303C1F3B8
:100A5000130143F4801312EB020AA64641F48011FD
:100A6000009543EB030CA7F1010B16E0B0EB0A0075
:100A700061EB0C01071E71F1000707DA4FF0000867
:100A8000D0EB080085F0004568EB0101171A73EB05
:100A90000107EBD3761E001849415E45F6DA50EAAD
:100AA000010209D0CDE900E5002213460296FFF7C6
:100AB00024FF03B0BDE8F08F20460099F9E700005D
:100AC000064C074D06E0E06840F0010394E807009B
:100AD00098471034AC42F6D3FFF75AFB24230108A1
:100AE0004423010870B58C1810F8015B15F007035A
:100AF00001D110F8013B2A1106D110F8012B03E0B7
:100B000010F8016B01F8016B5B1EF9D12B0705D4BE
:100B10000023521E0DD401F8013BFAE710F8013B07
:100B2000CB1A921C03E013F8015B01F8015B521E23
:100B3000F9D5A142D8D3002070BD10B52DED028BA0
:100B4000B0EE408AB0EE480A06F0FEF8BDEC028B2B
:100B500010BD10B52DED028BB0EE408AF0EE608A2C
:100B6000F0EE680AB0EE480A06F084F9BDEC028B9C
:100B700010BD10B52DED028BB0EE408AB0EE480AE4
:100B8000FFF77CFBBDEC028B10BDF0EE400AF5EEEA
:100B9000C00AF1EE10FA02DDB0EE600A7047B1EE65
:100BA000600AFBE718B19FED020A80ED000A70476A
:100BB0000000000018B1B3EE060A80ED000A70478D
:100BC00070B52DED0C8B84B006460C4615469FED96
:100BD000990AF0EE408A9FED970AB0EE409A9FED99
:100BE000950AF0EE40BA9FED930AF0EE409A9FED21
:100BF000910AB0EE40AA0EB104B11DB904B0BDEC2B
:100C00000C8B70BD8C48FFF7CDFF8C48FFF7D2FFEF
:100C10008A48D0ED000A9FED8A1A60EE810AB0EE94
:100C2000600A00F02DF9F0EE408A28EEA80AF0EEF6
:100C3000408A8248D0ED000AB0EE001A60EE810AC8
:100C40009FED7F1A60EE810AB0EE600A00F018F99D
:100C5000B0EE409A29EE090AB0EE409ADFED790A2B
:100C6000B7EE000A00EEA80ADFED770A00EEC90A27
:100C7000DFED760A20EE200A754880ED000A6E4806
:100C800090ED000ADFED730A80EE201AB7EE000A3D
:100C900031EE000A20EE000A6D48D0ED000A80EE29
:100CA000801A6D4880ED001A94ED000AB5EEC00A76
:100CB000F1EE10FA0DD194ED010AB5EEC00AF1EE95
:100CC00010FA06D194ED020AB5EEC00AF1EE10FA60
:100CD00046D09FED580AB0EE408A00200190029065
:100CE0000390D4ED000A60EEA00A94ED011AD4ED51
:100CF000011A41EE210A94ED021AD4ED021A41EED6
:100D0000210AB0EE600A00F0A9F8B0EE408A94ED36
:100D1000000A20EE080A8DED010A94ED010A20EE8A
:100D2000080A8DED020A94ED020A20EE080A8DED04
:100D3000030ADDED010AF1EE600AB0EE600AFFF78A
:100D4000FCFEF0EE409A9DED031AF0EE410A9DED97
:100D5000021AB0EE410AFFF7FCFEB0EE40AA07E02F
:100D60009FED340AF0EE409A9FED320AB0EE40AAB1
:100D700095ED000AB5EEC00AF1EE10FA0DD195ED31
:100D8000010AB5EEC00AF1EE10FA06D195ED020A9D
:100D9000B5EEC00AF1EE10FA3CD0B0EE690A00F0F0
:100DA0006FF8B0EE408AB0EE690AFFF7E2FEB0EEEF
:100DB00040DAB0EE4A0A00F063F8F0EE40AAB0EE76
:100DC0004A0AFFF7D6FEB0EE40BA28EE2A0AD5ED61
:100DD000010A20EE200AD5ED000A0DEE200A68EE89
:100DE0000B0A95ED021A00EE810AB0EE40CA95EDAD
:100DF000010A20EE0B0AD5ED020A0AEEE00AF0EE37
:100E000040CAF0EE6C0AB0EE4C0AFFF7A2FEF0EE1C
:100E100040BA03E09FED070AF0EE40BAB0EE4A1A7E
:100E2000F0EE690AB0EE6B0A304606F071FC00BFC6
:100E3000E4E60000000000005409002058090020EA
:100E400035FA8E3CC1BFAD3B9DF8C5362F7C1C41A9
:100E50005C090020506CC24A6009002010B52DEDDD
:100E6000028BB0EE408AB0EE480A06F022FAB7EEE6
:100E7000001AC1EE000AB0EE600ABDEC028B10BD94
:100E800010B52DED028BB0EE408AB0EE480AFFF7A8
:100E900031FABDEC028B10BD2DE9F0412DED028B36
:100EA0009AB00546B0EE408A0E4617469846002096
:100EB0001790189019901490159016904DB146B156
:100EC0003FB1B8F1000F04D0B5EEC08AF1EE10FAD0
:100ED00005D100201AB0BDEC028BBDE8F08196ED83
:100EE000000A8DED170A96ED010A8DED180A96EDB0
:100EF000020A8DED190A97ED000A8DED140A97ED9F
:100F0000010A8DED150A97ED020A8DED160A17AA52
:100F100014A9284606F04EFA402104A8FFF73DFA2E
:100F200000200090019002900390002417A904A8CB
:100F30000EF0ABFE00BF30E004A800EB041090ED13
:100F4000000AD5ED000A20EE200A04A800EB0410E8
:100F5000D0ED010A95ED011A00EE810A04A800EB1C
:100F60000410D0ED020A95ED021A00EE810A04A8E1
:100F700000EB0410D0ED030A95ED031A00EE810A90
:100F800020EE080AF0EE000A80EE201A684600EB18
:100F9000840080ED001A601CC4B2042CCCDB002459
:100FA00010E005EB840090ED000A684600EB840039
:100FB000D0ED000A30EE200A05EB840080ED000A37
:100FC000601CC4B2042CECDB28460DF0FFF90120B4
:100FD00080E7000010B51021014802F0BFFA10BDF3
:100FE0000000024010B51021014802F0B5FA10BD12
:100FF000000002407047000010B50121014802F0D6
:10100000ADFA10BD0004024010B50121014802F004
:10101000A3FA10BD000402401CB50121042002F017
:101020008FFD0121880302F0CBFD0421022003F093
:101030004DF80521022003F049F8302000900020EF
:101040008DF8040001208DF8070003208DF80500BD
:101050006946024802F00CFA1CBD0000000802407C
:10106000704710B50446204608F046FD10BD10B587
:101070000446204608F066FD10BD000010B50024AF
:10108000FFF7B8FFFFF7ECFF06F024FC044306F07F
:10109000BBFC044300204849088082E0FFF7B4FF0E
:1010A00008224649002000F06DF9FFF7A5FF4348EC
:1010B00000780F286FD14148C078000200B23F4944
:1010C000897808433E4908800846B0F9000000EEE0
:1010D000100AB8EEC00A3B48D0ED000A20EE200A04
:1010E000394880ED030A35484079000200B233499F
:1010F00009790843324908800846B0F9000000EE3B
:10110000100AB8EEC00A2F48D0ED000A20EE200ADF
:101110002D4880ED040A2948C079000200B2274911
:1011200089790843264908800846B0F9000000EE96
:10113000100AB8EEC00A2348D0ED000A20EE200ABB
:10114000214880ED050A214890ED000A1E48D0EDA7
:10115000030A9FED1F1A01EE600A1C4880ED000A89
:1011600090ED010A1848D0ED040A9FED191A01EE1E
:10117000600A164880ED010A90ED020A1248D0ED8F
:10118000050A9FED131A01EE600A104880ED020A6D
:101190000120FFF766FF08480088401C00B206499E
:1011A00008800548B0F9000042F210718842FFF64D
:1011B00075AF204610BD00006E08002070080020AA
:1011C0006C0800203408002094D0012008B60120CB
:1011D00017B7D1382DE9FC4105460E4617460020C9
:1011E00000900190FFF7FEFE922000F0EBF806223F
:1011F0006946122000F0C6F8FFF7ECFEFFF7F2FE9A
:10120000922000F0DFF806225A49122000F0BAF8C6
:10121000FFF7E0FE9DF80100000200B29DF800100B
:1012200040EA010400EE104AB8EEC00A5248D0ED80
:10123000000A20EE200A86ED000A9DF80300000255
:1012400000B29DF8021040EA010400EE104AB8EE28
:10125000C00A4948D0ED000A20EE200A86ED010AB6
:101260009DF80500000200B29DF8041040EA010458
:1012700000EE104AB8EEC00A3F48D0ED000A20EE5A
:10128000200A86ED020AFFF7BFFE08226946002009
:1012900000F078F8FFF7B0FEFFF7B6FE08223749F6
:1012A000002000F06FF8FFF7A7FE9DF800000F2860
:1012B00038D19DF80300000200B29DF8021040EA08
:1012C000010400EE104AB8EEC00A2D48D0ED000A25
:1012D00020EE200A85ED000A9DF80500000200B20C
:1012E0009DF8041040EA010400EE104AB8EEC00A6E
:1012F0002348D0ED000A20EE200A85ED010A9DF872
:101300000700000200B29DF8061040EA010400EE5A
:10131000104AB8EEC00A1A48D0ED000A20EE200AA2
:1013200085ED020AFFF75EFEA22000F04BF80222D4
:101330006946222000F026F8FFF74CFE9DF80000D9
:10134000C0009DF8011040EA6114B4F5806F02DB23
:10135000A4F5006004B200EE104AF8EEC00AB4EE44
:10136000001AB3EE070A00EE810A87ED000ABDE815
:10137000FC8100005D080020300800206308002088
:101380003408002070B506460C46154646F080002D
:1013900000F018F806E0552000F014F82070641CE6
:1013A000681EC5B2002DF6D170BD70B504460D465D
:1013B00044F0800000F006F8552000F003F8287093
:1013C00070BD00000246002106E01148814201D2B2
:1013D000491C01E0002070470E48008900F002001F
:1013E0000028F2D00B488281002106E008488142A3
:1013F00001D2491C01E00020EDE70648008900F019
:1014000001000028F2D003488089C0B2E3E7000061
:1014100080A219000030014070B505460C462846F0
:10142000FFF7D0FF2046FFF7CDFF70BD0248034B0A
:101430000ECB0EC003207047F8B1012000000A084F
:101440002DE9F04104460D46154802F089F807469B
:10145000134E01F049FF002001F096FEF32001F049
:101460008DFE00BF0221384601F0A0FE0928F9D107
:101470000AE02178304601F011FF092802D000204F
:10148000BDE8F081761C641C281EA5F10105F0D191
:10149000012001F079FE01F0F7FE0220F0E70000E4
:1014A00000000A0800BFFEE72DE9F0418AB00446BB
:1014B0000D4617461E46DDF840800121082002F047
:1014C0003FFB0121480602F05BFB0121480602F0C8
:1014D00067FB00214FF0007002F062FB03200890D0
:1014E00002208DF8240000208DF8260001208DF8C0
:1014F000270003208DF8250008A92C4801F0B8FF2B
:1015000009220021294801F0FBFF09220121274877
:1015100001F0F6FF01208DF81B0000208DF81C0063
:101520008DF81A008DF81F008DF81D008DF81E0033
:101530008DF81640ADF814808DF818708DF819608C
:101540008DF8175005A91A4800F05DFA0020ADF893
:101550000C008DF80F0001208DF810000020ADF870
:101560000400ADF80600ADF80800ADF80A008DF8EB
:101570000E0001208DF8110001A800F027F90122CA
:1015800002210B4800F036FA14208DF800000520E7
:101590008DF8010000208DF8020001208DF8030075
:1015A000684602F029FA0AB0BDE8F081000C02405A
:1015B0000064004010B50221084800F08BF960B1CA
:1015C0000221064800F0AEF8054A0021034800F069
:1015D000A4FA0349014802F051FC10BD0064004028
:1015E000A8AF01202DE9F0418AB004460D46174608
:1015F0001E46DDF840800121022002F0A1FA0121FF
:10160000880602F0BDFA0121880602F0C9FA00211D
:101610004FF0806002F0C4FA6020089002208DF83C
:10162000240000208DF8260001208DF827000320DB
:101630008DF8250008A92D4801F01AFF092205217F
:101640002A4801F05DFF09220621284801F058FFD1
:1016500001208DF81B0000208DF81C008DF81A0069
:101660008DF81F008DF81D008DF81E008DF81640B6
:10167000ADF814808DF818708DF819608DF817503A
:1016800005A91B4800F0BFF90020ADF80C008DF84B
:101690000F0001208DF810000020ADF80400ADF817
:1016A0000600ADF80800ADF80A000E208DF80E0017
:1016B00001208DF8110001A800F088F80122022114
:1016C0000B4800F097F940208DF8000005208DF8B8
:1016D000010000208DF8020001208DF8030068460B
:1016E00002F08AF90AB0BDE8F0810000000402406F
:1016F0000068004010B50221084800F0EBF860B126
:101700000221064800F00EF8054A0021034800F0C7
:1017100004FA0349014802F0B1FB10BD0068004023
:10172000BCAF0120B1F5007F3AD00FDC202928D0D2
:1017300006DC01291CD004291DD0082940D11DE058
:10174000402921D0B1F5807F3AD126E0B1F5004F94
:1017500031D006DCB1F5806F25D0B1F5006F2FD107
:1017600024E0B1F5803F12D0B1F5003F28D111E05F
:10177000154A826025E00822C26022E01022C26081
:101780001FE0082202611CE01022026119E0082219
:10179000426016E01022426013E00422426010E032
:1017A000042242600DE0042242600AE000228261CD
:1017B0000422426005E0002282610422426000E0CF
:1017C00000BF00BF704700000101010010B50021FB
:1017D000837A012202FA03F13D4A126842F00102C3
:1017E0003B4B1A603A4A1C3212688A43384B1C330E
:1017F0001A60027BCAB9364A0C3212688A43344BEB
:101800000C331A604288C38842EA0343304A4032AC
:10181000847A42F834300288838842EA03432C4AAF
:101820004032847A02EBC4025360027B012A19D150
:10183000274A0C3212680A43254B0C331A6042883F
:10184000038842EA0343224A4032847A42F8343021
:10185000C288838842EA03431D4A4032847A02EBFD
:10186000C4025360C27A3AB9194A121D12688A43F7
:10187000174B1B1D1A6006E0154A121D12680A4319
:10188000134B1B1D1A60028932B9114A14321268B7
:101890008A430F4B14331A600289012A06D10C4A7D
:1018A000143212680A430A4B14331A60427B012A2D
:1018B00006D1074A1C3212680A43054B1C331A60D2
:1018C000034A126822F00102014B1A6010BD0000A9
:1018D0000066004070B504460D4600266069284049
:1018E000002871D0B5F5807F5CD010DC082D35D094
:1018F00006DC012D20D0022D24D0042D72D127E04A
:10190000102D31D0202D35D0402D6BD138E0B5F5DC
:10191000004F60D009DCB5F5007F49D0B5F5806F88
:101920004CD0B5F5006F5DD14FE0B5F5803F2DD0BF
:10193000B5F5003F56D12FE0A0682D4900F095FC89
:10194000064651E0E068032100F08FFC06464BE0BC
:10195000E068082100F089FC064645E0E0681021B7
:1019600000F083FC06463FE02069032100F07DFC87
:10197000064639E02069082100F077FC064633E08E
:101980002069102100F071FC06462DE060680821F6
:1019900000F06BFC064627E06068102100F065FC53
:1019A000064621E0A069012100F05FFC06461BE02D
:1019B000A069022100F059FC064615E0A069042147
:1019C00000F053FC06460FE00FE0A069702100F024
:1019D0004CFC064608E06068042100F046FC064620
:1019E00002E0FFE7002600BF00E00026304670BDA1
:1019F000010101001AB143690B43436102E04369ED
:101A00008B434361704730B50246002000231468C1
:101A100024F002041460146844F00104146000E02F
:101A20005B1C546804F001041CB94FF6FF74A34218
:101A3000F6D1546804F001040CB900206CE08C79F4
:101A4000012C04D1146844F08004146003E014688D
:101A500024F080041460CC79012C04D1146844F083
:101A60004004146003E0146824F0400414600C7A0D
:101A7000012C04D1146844F02004146003E01468BD
:101A800024F0200414604C7A012C04D1146844F032
:101A90001004146003E0146824F0100414608C7ABD
:101AA000012C04D1146844F00804146003E01468A5
:101AB00024F008041460CC7A012C04D1146844F09A
:101AC0000404146003E0146824F0040414608C78A7
:101AD000A407CD7844EA05640D7944EA05444D79BC
:101AE00044EA05540D886D1E2C43D461146824F01B
:101AF00001041460002300E05B1C546804F001043E
:101B00001CB14FF6FF74A342F6D1546804F00104EF
:101B10000CB1002000E0012030BD10B500F5D873F5
:101B200003EB01131B6803F004031372137A53B918
:101B300000F5D87303EB01131B6840F2FF7404EA4D
:101B40005353136009E000F5D87303EB01131B68CE
:101B50006FF0604404EAD303536000F5D87303EBDD
:101B600001131B6803F00203537200F5D87303EBF3
:101B700001135B6803F00F03937200F5D87303EB56
:101B800001135B681B0AD37400F5D87303EB0113D0
:101B90009B68D37200F5D87303EB01139B681C0A92
:101BA000147300F5D87303EB01139B681C0C54737A
:101BB00000F5D87303EB01139B681B0E937300F5BC
:101BC000D87303EB0113DB68D37300F5D87303EB11
:101BD0000113DB681C0A147400F5D87303EB0113BE
:101BE000DB681C0C547400F5D87303EB0113DB683D
:101BF0001B0E937421B9C36843F02003C36003E054
:101C0000036943F02003036110BD10B502460020B4
:101C1000936803F08063B3F1806F00D110E09368A4
:101C200003F00063B3F1006F01D1012008E0936875
:101C300003F08053B3F1805F01D1022000E0042063
:101C4000042874D002F5C07303EB00131B6803F083
:101C5000010402F5C07303EB00131C600B7A7BB91F
:101C60004B7A0C8843EA445302F5C07404EB001429
:101C70002468234302F5C07404EB0014236010E0D1
:101C80000B7A4C6843EAC4034C7A234302F5C074D0
:101C900004EB00142468234302F5C07404EB001421
:101CA00023608B7A03F00F038B7202F5C07303EB92
:101CB00000135B6823F00F0402F5C07303EB0013FD
:101CC0005C6002F5C07303EB00135B688C7A2343FE
:101CD00002F5C07404EB001463608B7B1C064B7B25
:101CE00044EA03440B7B44EA0323CC7A234302F502
:101CF000C07404EB0014A3608B7C1C064B7C44EA8C
:101D000003440B7C44EA0323CC7B234302F5C074D9
:101D100004EB0014E36002F5C07303EB00131B68CF
:101D200043F0010402F5C07303EB00131C6010BD07
:101D30002948B0F84E003C2820D1284890ED0C0AE4
:101D4000D0ED0D0A30EE600AF0EE000AB4EEE00AC3
:101D5000F1EE10FA08D390ED0D0AF3EE040AB4EE9A
:101D6000E00AF1EE10FA09DB1D4800680A2808D0E5
:101D70001B480068401C1A49086002E0002018490E
:101D80000860174800680A2805D1144890ED0D0A2C
:101D9000144880ED000A114890ED0D0A1148D0ED6D
:101DA000000AB4EEE00AF1EE10FA05DD0B4890ED02
:101DB0000D0A0C4880ED000A0A4890ED000AF3EE87
:101DC000040AB4EEE00AF1EE10FA03D2B3EE040A0C
:101DD00080ED000A70470000ECC0012044B20120F1
:101DE000600200204402002030B52DED108B93B02E
:101DF0000446282012909FEDFE0AB0EE40DA9FEDD7
:101E0000FC0AB0EE409A9FEDFA0AF0EE409A9FED80
:101E1000F80AB0EE40AA9FEDF60A8DED090A9FED93
:101E2000F50AF0EE40DA9FEDF40AB0EE40EA9FEDDD
:101E3000F30AF0EE40EA9FEDF20AB0EE40FA09A88C
:101E400008F04EFADFEDEF0A9DED090AEE480BF0BF
:101E500095FB12A808F07CFAEB48D0ED0C0ABDF80F
:101E6000480000EE100AB8EE400A30EE600AB0EE0C
:101E7000409AE648B0F84E000A2803DC00200CF037
:101E800029FD0AE09FEDE20A29EE000ABCEEC00A35
:101E900010EE101A88B20CF01DFDDE48007DC0F374
:101EA000001028B9DB48B0F90200B0F5257F03D156
:101EB0000120D949087002E00020D749087094ED4C
:101EC0000D0AF2EE0E0AB4EEE00AF1EE10FA15DD9C
:101ED000D148007858B9B1EE040A39EE000ACF486B
:101EE000D0ED000A20EE200AB0EE40DA0DE09FEDC2
:101EF000CC0A39EE000AB0EE40DA06E0C74890EDB1
:101F0000000A29EE000AB0EE40DA002059E004F1A0
:101F1000240131F9101000EE101AB8EEC00A60EE7C
:101F20002D0A04F1140131F9101000EE101AB8EE68
:101F3000C00A20EE800A04F1140131F9101000EEFD
:101F4000901AF8EEE00A20EEAE1A04F1140131F90D
:101F5000101000EE901AF8EEE00A01EE200A04F1EB
:101F6000240131F9101000EE901AF8EEE00A20EE8C
:101F70008E1A04F1240131F9101000EE901AF8EED7
:101F8000E00A01EE200A30EE0F0A0EA901EB8001F3
:101F900081ED000A0EA901EB800191ED000AB5EE7A
:101FA000C00AF1EE10FA00D209E00EA901EB80019F
:101FB00091ED000A30EE290AF0EE409A00BF411C74
:101FC000C8B20428A3DBB0EE69AAF4EECD9AF1EE14
:101FD00010FA7DDD8DEE290A8DED080A9FED840A49
:101FE000B0EE40AA002536E10EA800EB8500D0ED4A
:101FF000000A9DED080A20EE800A0AA800EB850081
:1020000080ED000A0AA800EB850090ED000A30EE92
:102010000A0AB0EE40AA0AA800EB850090ED000A7B
:10202000B5EEC00AF1EE10FA00D212E1B0EE4E8A1F
:1020300004F1140030F9150000EE100AB8EEC00AE1
:1020400060EE2D8A0AA800EB850090ED000A04F1ED
:10205000140030F9150000EE900AF8EEE00A20EEC8
:10206000AE1A04F1140030F9150000EE900AF8EEF3
:10207000E00A11EE200A70EE0FAA04F1240030F9F4
:102080001500002863DDB0EE000A28EE000A10EE0D
:10209000101A0846FEF75BFB28EEA80AF1EE000ACC
:1020A00068EE200A00EEEA0ACDE9040110EE101AEB
:1020B0000846FEF74CFB41EC1C0BB0EE4C0AF0EE70
:1020C0006C0A05F0B9F8B0EE40BAF0EE60BA00E084
:1020D000C5E0B1EE680A10EE100AFEF738FB53ECCB
:1020E0001B2BCDE900019DED000B51EC100BFEF711
:1020F0006FF9CDE902019DED040B53EC102B9DED22
:10210000020B51EC100BFEF77CFACDE906019DEDB8
:10211000060B51EC100BFEF75DFB0FEE900A9FEDE6
:10212000410AF4EEC0FAF1EE10FA06DD4FF47A51EE
:1021300004F1240020F8151008E0BDEEEF0A10EEBF
:10214000100A01B204F1240020F8151080E0B0EE6E
:10215000000A28EE000A10EE101A0846FEF7F7FAF9
:1021600028EEA80AF1EE000A68EE200A00EEEA0A5C
:10217000CDE9040110EE101A0846FEF7E8FA41EC2A
:102180001B0BB0EE4B0AF0EE6B0A05F055F8B0EE03
:1021900040CAF0EE60CAB1EE680A10EE100AFEF70F
:1021A000D6FA53EC1C2BCDE900019DED000B51EC50
:1021B000100BFEF7AEF9CDE902019DED040B53ECD7
:1021C000102B9DED020B51EC100BFEF71AFACDE926
:1021D00006019DED060B51EC100BFEF7FBFA0FEE1E
:1021E000900A9FED110AF4EEC0FAF1EE10FA1DE02C
:1021F000000000004F020636FC110434C3031C34F7
:102200008D97824000005C422CC00120ECC0012070
:102210000000C842F8A20120A0070020A407002067
:102220000000484300007A4600007AC606D24CF20D
:10223000801104F1240020F8151008E0BDEEEF0A2B
:1022400010EE100A01B204F1240020F8151000BFAE
:1022500000BF681CC5B2042DFFF6C6AE00BFB0EECD
:102260004A0A13B0BDEC108B30BD0246002002EAD2
:1022700001030BB1012000E00020704770B5064655
:102280000C4604F08000802808D104F07F0000EBA9
:10229000800106F58E7000EBC10507E004F07F00B9
:1022A00000EB800106F55D7000EBC10504F07F00D6
:1022B000287004F08000C00968702946304604F098
:1022C0005CF9002070BD70B506460C4604F0800035
:1022D000802808D104F07F0000EB800106F58E70A5
:1022E00000EBC10505E004EB840106F55D7000EB31
:1022F000C1050020A87004F07F002870C4F3C0104E
:1023000068702946304604F010F9002070BD2DE9B0
:10231000F04106460D4690461F4605F08000802895
:1023200008D105F07F0000EB800106F58E7000EB10
:10233000C10407E005F07F0000EB800106F55D7049
:1023400000EBC10405F07F00207005F08000C0099B
:102350006070C4F80880E770607808B12078E08089
:10236000022F01D1002020712146304604F091F85F
:102370000020BDE8F0812DE9F04105460E461746E4
:10238000984606F07F0000EB800105F55D7000EBDC
:10239000C104E760C4F814800020A061607006F0FA
:1023A0007F002070E878012800D12761207820B9CB
:1023B0002146284603F091FF03E02146284604F019
:1023C0003DF90020BDE8F08108B500220092009A96
:1023D00061F30A12009202691268009B1A430369B2
:1023E0001A6008BD70B506460C4604F080008028CF
:1023F00008D104F07F0000EB800106F58E7000EB41
:10240000C10505E004EB840106F55D7000EBC10534
:102410000120A87004F07F002870C4F3C010687019
:102420002946304604F0D8F8002070BD2DE9F0416F
:1024300007460D461646984605F07F0000EB8001E2
:1024400007F58E7000EBC1040120607005F07F007D
:102450002070E66026610020A061C4F81480207816
:1024600020B92146384603F038FF03E021463846BC
:1024700004F0E4F80020BDE8F081000030B587B03A
:102480000546594C284603F0EEFE01A801F0C2FBB8
:10249000029CE868C0680590059820F4705005908B
:1024A0000598E968C860284604F090FA03280BD123
:1024B0000020A8704FF40070A880059820F4705098
:1024C00000F5105005907EE00120A8704020A88003
:1024D0004648844209D34648844206D2059820F4EF
:1024E000705000F5605005906DE04148844209D37A
:1024F0004048844206D2059820F4705000F55050B0
:10250000059060E03B48844209D33B48844206D2B0
:10251000059820F4705000F54050059053E036487F
:10252000844209D33548844206D2059820F470507D
:1025300000F53050059046E03048844209D33048D9
:10254000844206D2059820F4705000F52050059082
:1025500039E02B48844209D32A48844206D20598A0
:1025600020F4705000F5105005902CE0254884426E
:1025700009D32548844206D2059820F4705000F50E
:10258000005005901FE02048844209D31F48844230
:1025900006D2059820F4705000F5E050059012E046
:1025A0001A48844209D31A48844206D2059820F476
:1025B000705000F5C050059005E0059820F470506B
:1025C00000F5A05005900598E968C86000200690C5
:1025D000069820F4005000F5005006900698E9682F
:1025E0004861012007B030BD007A030AC0E1E40071
:1025F0000024F400E0EC040100C31801002D3101B7
:1026000040A44C0100366E0140E2950180C3C9012F
:1026100060600B02F8B505460024002000902846B3
:1026200004F015FA064681E006F0010000287BD090
:10263000E1B2284600F0F6FA0090009800F00100A0
:1026400030B3012000FA04F72869406BB8432969C8
:10265000486300200090009820F00100401C00908A
:1026600005F1180050F8240000998160E1B2324869
:102670000068426828469047E878012808D13CB9AC
:1026800040F21110405D042802D1284603F0D0FE2C
:102690000098C0F3C00060B100200090009820F0C6
:1026A00008000830009005F1180050F82400009947
:1026B00081600098C0F3001060B100200090009885
:1026C00020F010001030009005F1180050F82400A0
:1026D000009981600098C0F3801060B100200090E4
:1026E000009820F040004030009005F1180050F8AC
:1026F0002400009981600098C0F3400060B1002080
:102700000090009820F00200801C009005F1180055
:1027100050F82400009981600098C0F3C01018B1EF
:102720002146284600F092FA641C7608002E7FF4B9
:102730007BAF0120F8BD0000400900207CB50446B5
:10274000002500200190204604F089F906466FE03C
:1027500006F00100002869D0E9B2204604F087F9AC
:102760000190019800F00100C8B300200190019889
:1027700020F00100401C019004F1540050F82500A5
:1027800001998160E078012817D104F1540050F8D4
:1027900025000069009005EB850104F55D7000EBF4
:1027A000C10080680099C1F31201411A05EB85024E
:1027B00004F55D7000EBC2008161E9B21E4800685B
:1027C000026820469047E078012808D13DB940F2E0
:1027D0001110005D052802D1204603F029FE019862
:1027E000C0F3400060B100200190019820F0020089
:1027F000801C019004F1540050F82500019981607B
:102800000198C0F3C00088B10B4800688168204679
:10281000884700200190019820F0080008300190BE
:1028200004F1540050F82500019981606D1C760870
:10283000002E8DD101207CBD400900203EB504460C
:10284000A07A78B1D4F80C0100680090009820F0CC
:1028500002000090009820F0010000900099D4F848
:102860000C01016000200190019820F00100401C43
:1028700001902069406801998843216948600948AE
:10288000006881692046884700200290029820F065
:10289000004000F1004002900298E1684861012088
:1028A0003EBD0000400900207CB504460020019098
:1028B000019820F0100010300190E06880690199C3
:1028C0008843E1688861E068006A0090009800F041
:1028D0000F0000EB800104F55D7000EBC10500986E
:1028E000C0F3434007282DD2DFE800F02C04051D7B
:1028F0001E2C1F0027E00098C0F30A1090B100982A
:10290000C0F30A122046E96804F0BBF8E8680099B1
:10291000C1F30A110844E860A8690099C1F30A11DB
:102920000844A8610FE00EE00DE0082204F2CC514B
:10293000204604F0A6F8A8690099C1F30A110844DA
:10294000A86100E000BF00BFE0688069019908430A
:10295000E168886101207CBD38B5044608480068FC
:10296000C1682046884700200090009820F00800A9
:10297000083000900098E1684861012038BD0000EF
:10298000400900201FB50446002000904FF48970D4
:10299000005D00902348006841692046884720690F
:1029A0008068019000200390039820F4006000F5F7
:1029B000006003900398E1684861A07A70B30198C1
:1029C00000F0010050B340F21510005D012825D140
:1029D0009DF80000032821D100200290029820F0E9
:1029E0000100401C0290D4F80C01006802990843D1
:1029F000D4F80C110860029820F00200801C0290AC
:102A0000D4F80C01006802990843D4F80C1108604E
:102A10000548006840F0060003490860012004B042
:102A200010BD00004009002010ED00E030B587B077
:102A300004460020029006900590049003900190B7
:102A4000029820F00100401C029020694068029921
:102A50008843216948600021204603F08DFF00254E
:102A60000BE0FF2104F1180050F82500816004F10B
:102A7000540050F8250081606D1C6078A842F0D8A1
:102A80004FF0FF312069816106986FF30F00401C01
:102A90000690069880B200F580300690069920696D
:102AA000C161059820F0080008300590059820F0D5
:102AB0000100401C0590059820F00200801C059044
:102AC000059920694161049820F00100401C0490A0
:102AD000049820F0080008300490049820F00200C8
:102AE000801C0490049920690161206900680390AA
:102AF000039820F4FE60039003992069016020464A
:102B000003F096FC00200190019820F4805000F51D
:102B1000805001900198E1684861044800680169AB
:102B200020468847012007B030BD00004009002042
:102B30002DE9F04106460F463946304603F0B6FF10
:102B400001214FF4897081550021801C8155002599
:102B500011E005EB850106F58E7000EBC104012044
:102B600060702570E5800020E0704020A0600020AB
:102B7000E06060616D1C7078A842EAD8002510E022
:102B800005EB850106F55D7000EBC1040020607067
:102B90002570E580E0704020A0600020E06060616A
:102BA0006D1C7078A842EBD8304603F04BFB3046E2
:102BB00003F078F90021304603F0E0FF304603F0DF
:102BC00004FA304603F0A0FEBDE8F08138B50446B3
:102BD0000020009007480068C16920468847009897
:102BE00020F4801000F5801000900098E1684861A2
:102BF000012038BD4009002038B50446002000906F
:102C000007480068016A20468847009820F40010B1
:102C100000F5001000900098E1684861012038BD7F
:102C20004009002030B5024615692B6915696C6BA7
:102C300024FA01F505F0010543EAC51302F1180570
:102C400055F82150AD6805EA030030BD2DE9F84381
:102C500006460F4600250020009007EB870106F589
:102C60008E7000EBC104D4E90501451AA068A842A2
:102C700000D2A568E81C4FEA900806F1180050F849
:102C800027008069009029E0D4E90501451AA06871
:102C9000A84200D2A568E81C4FEA9008ABB2FAB28D
:102CA0003046E16803F091FFE0682844E060A069E5
:102CB0002844A06106F1180050F8270080690090B0
:102CC000D4E90501884209D12178012000FA01F9EF
:102CD0003069406B20EA090031694863009880B28E
:102CE000404506D9D4E90510884202D2606900281F
:102CF000CAD10120BDE8F8830246094B9A4201D2AD
:102D0000084801E00648103801F000531BB1064B9B
:102D10000B40C36002E0044B0B408360704700002F
:102D200010640240006002407D0F7D0F21B10268F7
:102D300042F00102026003E0026822F00102026038
:102D400070470000016821F001010160002101606D
:102D500041608160C1600161212141614A4988422D
:102D600004D13D21484A103A91608CE0464918311F
:102D7000884205D14FF47461434A103A916082E071
:102D800041493031884205D14FF474113E4A103A1E
:102D9000916078E03C494831884205D14FF0746138
:102DA000394A103A91606EE037496031884204D167
:102DB0003649354A103AD16065E033497831884266
:102DC00004D13349304A103AD1605CE02E49903149
:102DD000884204D12F492C4A103AD16053E02A4945
:102DE000A831884205D14FF03D51274A103AD160B1
:102DF00049E02949884204D13D21274A083A116017
:102E000041E025491831884205D14FF47461224AC6
:102E1000083A116037E020493031884205D14FF43B
:102E200074111D4A083A11602DE01B49483188424F
:102E300005D14FF07461184A083A116023E0164931
:102E40006031884204D11149134A121F11601AE0FF
:102E500011497831884204D10D490F4A121F11607F
:102E600011E00D499031884204D10A490A4A121FE3
:102E7000116008E00849A831884204D14FF03D5163
:102E8000054A121F11607047106002403D0000208B
:102E9000400F002000003D201064024021B1026874
:102EA00042F48022026003E0026822F48022026081
:102EB000704722B1036843F40023036003E0036812
:102EC00023F400230360016170470146486880B223
:102ED0007047014600200A6802F400220AB101206E
:102EE00000E000207047000010B500220268134B7C
:102EF0001A40CC680B6823434C6923438C692343F5
:102F0000CC6923430C6A23434C6A23438C6A2343D2
:102F10004C6B23438C6B23431A430260426922F0BB
:102F20000702D1E90B3423431A4342610B69436022
:102F30004B6883608B68C36010BD00003F801CF04D
:102F40004160704708B50B49496800910168009AD3
:102F5000511A00EE901AB8EE601A0749D1ED000A36
:102F6000F8EE600AC1EE201AB0EE610A0099016025
:102F700008BD0000001000E07C0100200D49096838
:102F800041F080710B4A116000210B4A51601146DB
:102F9000096841F00101116008494143084A116084
:102FA0000021084A11609FED080A084981ED000AD6
:102FB00070470000FCED00E0001000E040420F0010
:102FC0007C0100208001002000000000840100201E
:102FD0007047000010B5012000F02AF8012814D134
:102FE0000A2006F089FD01210A4800F0ACFA60B918
:102FF000094800880949086009480088486001209C
:1030000008720C210548FEF71BFA012000F00AF8AF
:1030100010BD000000000240FCB00120F8B101200A
:10302000C0B001200149086070470000143C014015
:1030300001460020034A12680A400AB1012000E05C
:1030400000207047143C0140002123498279002A66
:103050003AD00A46126803689A430B461A600A1D62
:10306000126803689A430B1D1A60027911440A68BA
:1030700003681A430A60184A0832126803689A43C0
:10308000154B08331A601A1D126803689A43124BD5
:103090000C331A604279102A0ED11A1F1268036885
:1030A0001A430D4B08331A601A1D126803681A433D
:1030B000094B0C331A600DE00749427911440A6844
:1030C00003681A430A6005E0027911440A6803683C
:1030D0009A430A6070470000003C0140F0EE400A4D
:1030E0009FED202AB0EE421A9FED1E2AF0EE421A02
:1030F0001D4890ED002A30EEC22A1C48D0ED002A6F
:1031000082EE223AF0EE431A1748D0ED002AB0EED4
:10311000003AB0EE602A03EE622A1548D0ED002A8C
:1031200032EE222A1148D0ED002A62EEA22A82EE67
:10313000223AB0EE431A0F4890ED002A22EE212ADF
:103140000D48D0ED002A02EE812AB0EE420A064870
:1031500090ED002A064880ED002A0348C0ED000AE1
:103160007047000000000000E4040020E00400209C
:10317000E8040020EC040020F0040020014908606D
:10318000704700000C3C024030B10749096841F427
:103190008061054A116005E00349096821F48061F6
:1031A000014A116070470000003C024070B50446BF
:1031B0000A460026092502B909E0012A01D11602B2
:1031C00005E0022A01D1160201E04FF4407600F03A
:1031D0009DF80546092D28D11548006820F4407057
:1031E00013490860084600683043086008460068D4
:1031F00020F0F80008600846006844F00201084327
:103200000B4908600846006840F48030086000F010
:103210007DF805460648006820F002000449086071
:103220000846006820F0F8000860284670BD0000DD
:10323000103C024009201349096801F48031B1F5BE
:10324000803F01D101201CE00E49096801F0100106
:1032500009B1062015E00B49096801F4807109B134
:1032600002200EE00749096801F0E00109B10720DA
:1032700007E00449096801F0020109B1082000E0F3
:10328000092070470C3C02400348006840F00040B1
:103290000149086070470000103C024030B502460A
:1032A0000C46092500F032F80546092D17D10D48C6
:1032B000006820F440700B49086008460068086008
:1032C0000846006840F001000860147000F01EF825
:1032D00005460448006820F00100024908602846BD
:1032E00030BD0000103C02400548006800F000407E
:1032F00028B1044802490C39086003480860704747
:10330000103C024023016745AB89EFCD08B5092089
:103310000090FFF78FFF009002E0FFF78BFF009017
:103320009DF800000128F8D09DF8000008BD0000BD
:1033300010B52DED068B04462046FDF7E2F941EC71
:103340001A0B53EC1A2B9FED0A0B51EC100BFDF7E7
:1033500058F941EC190B9FED080B53EC102BFDF7BE
:10336000DEF841EC180BFDF7D9F9BDEC068B10BD6A
:10337000000000000000F03F0000000000408F400F
:103380001CB50121084600F0DBFB0121022000F002
:10339000D7FB0121042000F0D3FB0121082000F01D
:1033A000CFFB0121202000F0CBFB0121402000F0C9
:1033B000C7FB0121802000F0C3FB0121080200F0BF
:1033C000BFFB4FF4E050009001208DF804008DF811
:1033D000070000208DF806008DF805006946214899
:1033E00000F046F84FF480511E4800F0B7F8012075
:1033F000009000208DF8040001208DF80700694638
:10340000194800F035F81020009001208DF80400D4
:103410008DF8070000208DF8060002208DF80500C9
:103420006946114800F024F810210F4800F096F882
:10343000012000908DF804008DF8070000208DF821
:10344000060002208DF805006946084800F010F8D3
:103450000121064800F082F8FDF7DEFD00F06DFA6C
:103460001CBD0000001C024000000240000402409D
:10347000F0B50A4600210023002400BF3DE00125ED
:1034800005FA01F3156805EA03049C4234D1056886
:103490004F000326BE40B543056015794E00B54088
:1034A0000668354305601579012D02D01579022D86
:1034B00016D185684F000326BE40B5438560557917
:1034C0004E00B540866835438560456801268E40CC
:1034D000B5434560456896798E40B6B23543456040
:1034E000C5684F000326BE40B543C560D5794E0080
:1034F000B540C6683543C560491C1029BFD3F0BD2F
:10350000F0B5002300244D07ED0E02FA05F3CE10AE
:1035100000F1200555F826504E07F70E0F26BE4045
:10352000B543CF1000F1200646F82750CE1000F129
:10353000200555F8265045EA0304CE1000F1200579
:1035400045F82640F0BD0246002013690B400BB140
:10355000012000E0002070474183704701837047DD
:10356000014600205C4A914203D2B1F1006F00D3C2
:10357000B0E05A4A914204D2574A914201D30820FE
:10358000A8E0574A914204D2544A914201D31020F4
:10359000A0E0544A914204D2514A914201D31820EA
:1035A00098E0514A914204D24E4A914201D32020E0
:1035B00090E04E4A914204D24B4A914201D32820D6
:1035C00088E04B4A914204D2484A914201D33020CC
:1035D00080E0484A914204D2454A914201D33820C2
:1035E00078E0454A914204D2424A914201D34020B8
:1035F00070E0424A914204D23F4A914201D34820AE
:1036000068E03F4A914204D23C4A914201D35020A3
:1036100060E0B1F1016F04D2394A914201D35820E0
:1036200058E0384A914204D2B1F1016F01D38020B1
:1036300050E0354A914204D2324A914201D3882067
:1036400048E0324A914204D22F4A914201D390205D
:1036500040E02F4A914204D22C4A914201D3982053
:1036600038E02C4A914204D2294A914201D3A02049
:1036700030E0294A914204D2264A914201D3A8203F
:1036800028E0264A914204D2234A914201D3B02035
:1036900020E0234A914204D2204A914201D3B8202B
:1036A00018E0204A914204D21D4A914201D3C02021
:1036B00010E01D4A914204D21A4A914201D3C82017
:1036C00008E01A4A914204D2174A914201D3D0200D
:1036D00000E0D8207047000000400008008000088B
:1036E00000C00008000001080000020800000408F3
:1036F000000006080000080800000A0800000C0886
:1037000000000E08004010080080100800C01008DB
:10371000000011080000120800001408000016083C
:103720000000180800001A0800001C0800001E080D
:1037300070B504460D4609F03DFE20602188A28840
:10374000891A88B2FFF7F4FD28602068606070BDB8
:1037500070B50A480468001D0568001D06683444F9
:1037600054B108220649204600F0C8F80422044952
:103770001031284600F0C2F870BD0000107AFF1F1B
:103780008E000020014800687047000014000020EF
:1037900005480068401C0449086008460068401C51
:1037A00008B90020086070471400002070B5064674
:1037B0003048007800285BD12F480068B0F5006FD2
:1037C00002D100202C4908602B4800682B49096869
:1037D000884203D100202749087070BD2648006840
:1037E00026490968884206D923480068C0F5006068
:1037F0002349086006E0214800681F490968401A0B
:103800001F4908601E480068402811D91A480088DE
:1038100085B24024184800684030174908601848AD
:10382000006840381649086001201249087018E005
:103830001148008885B21248008884B20E4800689A
:103840000F49096808440C49086000200C490860C9
:10385000402C03D102200749087002E001200549ED
:10386000087008484219234681213046FEF7DEFDE4
:1038700000BFB2E7900800208808002084080020DC
:103880008C08002043D1012000BFFEE770B505463B
:103890000C4645F2555000F02BF8284600F01CF875
:1038A000204600F01FF800F00FF800F001F870BD9E
:1038B0004CF6CC40014908607047000000300040E1
:1038C00010B500F001F810BD4AF6AA2001490860C1
:1038D0007047000000300040014948607047000018
:1038E000003000400149886070470000003000400F
:1038F00001490860704700000030004030B50B46B9
:10390000002100BF16E00A24B4EB107F05D9302453
:1039100004EB107403F8114005E0412404EB10742B
:103920000A3C03F81140000100254C00641C1D55A1
:103930004C1CE1B29142E6DB30BD0EB5012188039B
:1039400000F03EF90021084600F0C0FB06208DF88B
:10395000080001208DF8090002208DF80A000120DE
:103960008DF80B0002A800F047F80120009000201D
:103970008DF8040010208DF8050001208DF8060058
:103980006846FFF761FB0EBD024908780021014A35
:10399000117070471800002090ED021AB1EE411A24
:1039A000D0ED021A21EE211AD0ED001A71EEC01AE4
:1039B00021EE211AD0ED021AB0EE002A61EE821A31
:1039C00090ED012A01EEC21AF0EE410A90ED001AC4
:1039D000D0ED011A90ED032A01EE821A80ED001A53
:1039E00090ED011AD0ED031A00EEA11A80ED011A34
:1039F000704700BFFEE7704770B5002100230F221B
:103A0000C4781CB3174C246804F4E064C4F5E06483
:103A1000C4F30721C1F10404E3B20A4144789C4095
:103A2000E1B28478144021430C07210E0E4C057836
:103A30006155047804F01F050124AC4005786D1130
:103A4000AD0005F1E025C5F8004109E0047804F077
:103A50001F050124AC40054D0678761145F8264037
:103A600070BD00000CED00E000E400E080E100E04B
:103A700002490143024A1160704700000000FA0544
:103A80000CED00E010B5024801F0E6FD10BD0000AD
:103A9000680900209FED0A0A80ED080A9FED080AD8
:103AA00080ED0A0A9FED060A80ED0B0A9FED040ADD
:103AB00080ED020A9FED020A80ED030A70470000C4
:103AC000000000002DE9F0412DED048B0446B0EE1E
:103AD000408AF0EE608AB0EE419A0E4617461D46C7
:103AE000C5B915482064154860643A463146B0EEC1
:103AF000491AF0EE680AB0EE480A2046236C98474F
:103B0000B0EE491AF0EE680AB0EE480A2046616C41
:103B100088470CE0084820643A463146B0EE491A1E
:103B2000F0EE680AB0EE480A2046236C9847BDECD8
:103B3000048BBDE8F081000085D60008A1D60008FE
:103B400029B1064A12680243044B1A6004E0034A92
:103B500012688243014B1A607047000030380240FF
:103B600029B1064A12680243044B1A6004E0034A72
:103B700012688243014B1A607047000034380240DB
:103B800029B1064A12680243044B1A6004E0034A52
:103B900012688243014B1A607047000040380240AF
:103BA00029B1064A12680243044B1A6004E0034A32
:103BB00012688243014B1A607047000020380240AF
:103BC00029B1064A12680243044B1A6004E0034A12
:103BD00012688243014B1A6070470000443802406B
:103BE00029B1064A12680243044B1A6004E0034AF2
:103BF00012688243014B1A6070470000243802406B
:103C00000348006840F08070014908607047000078
:103C100074380240F0B5002100220024022500265D
:103C20000223324F3F6807F00C0121B1042905D06F
:103C3000082937D105E02E4F076036E02D4F076089
:103C400033E02A4F3F1F3F68C7F38056274F3F1F7F
:103C50003F6807F03F036EB1264FB7FBF3F7DFF87D
:103C60008CC0ACF1040CDCF800C0CCF3881C07FB62
:103C70000CF40CE01E4FB7FBF3F7DFF870C0ACF1AB
:103C8000040CDCF800C0CCF3881C07FB0CF4174FC5
:103C90003F1F3F68C7F301477F1C7D00B4FBF5F76A
:103CA000076002E0124F076000BF00BF0F4F3F6880
:103CB00007F0F0010909104F7A5C0768D7404760A8
:103CC0000A4F3F6807F4E051890A0B4F7A5C476856
:103CD000D7408760054F3F6807F46041490B064FA6
:103CE0007A5C4768D740C760F0BD000008380240E2
:103CF0000024F400001BB700C400002010B50146EA
:103D00000022002300204A11012A02D10A4C236814
:103D100008E0022A03D1084C7034236802E0064C04
:103D20007434236801F01F02012494401C400CB13C
:103D3000012000E0002010BD0038024021B10288BF
:103D400042F04002028004E002884FF6BF731A403E
:103D50000280704700B587B001210846FFF7F0FEEA
:103D600001210220FFF7ECFE01210803FFF728FFE5
:103D7000052204212F48FFF7C3FB052203212D480C
:103D8000FFF7BEFB052207212B48FFF7B9FB1820E0
:103D9000059002208DF8180000208DF81A000120EF
:103DA0008DF81B0003208DF8190005A92148FFF7A5
:103DB0005FFB02208DF8180000208DF81A0001200A
:103DC0008DF81B0003208DF819008020059005A9AF
:103DD0001948FFF74DFB4FF48270ADF80200002048
:103DE000ADF80000ADF804000220ADF80600012097
:103DF000ADF808004002ADF80A002820ADF80C002C
:103E00000020ADF80E000720ADF810000B488088A8
:103E10000A4988800846008820F4005008806946D6
:103E2000064800F00DF801210448FFF787FF07B0AE
:103E300000BD0000000402400000024000300140CC
:103E400010B50022028802F441520B884C882343AB
:103E50008C882343CC8823430C8923434C892343F8
:103E60008C892343CC8923431A430280838B4FF2EE
:103E7000FF74234083830B8A038210BD70B505460F
:103E80000C46864885427CD12068B0F5017F11D070
:103E900007DCA0F2012050B1012809D0022871D11D
:103EA00007E0A0F2052078B30C286BD145E000BFF5
:103EB00000BF00BF2078401E79490870084600788E
:103EC000C0EB0010774901EB8000816974480078ED
:103ED000C0EB0010734A02EB80008069401C704AFE
:103EE0001278C2EB02126F4B03EB8202906132290F
:103EF0000BD86B490978C1EB01111A4602EB81001E
:103F0000214606F06BFD0AE00FE065490978C1EB38
:103F10000111644A02EB8100214605F0A1FF6049CE
:103F20000978481C05F0FAFF4CE021465E4805F090
:103F300097FF052005F0F2FF44E05C48C17A007B62
:103F400041EA002000EE100AB8EEC00ADFED580A80
:103F500080EE201A574880ED0C1A5448417B807B34
:103F600041EA002000EE100AB8EEC00ADFED500A68
:103F700080EE201A4F4880ED0D1A4C48C17B007C22
:103F800001E020E01DE041EA002000EE100AB8EE5A
:103F9000C00ADFED470A80EE201A464880ED0E1A6F
:103FA0004248417C807C41EA002000EE100AB8EED5
:103FB000C00ADFED3F0A80EE201A3E4880ED0F1A5E
:103FC00000E000BF68E03C48854265D12068A0F26F
:103FD000012030B1012805D002283ED0052859D152
:103FE00050E000BF2078401E344908700846007831
:103FF000C0EB0010324901EB800081692F48007846
:10400000C0EB00102E4A02EB80008069401C2B4A56
:104010001278C2EB02122A4B03EB82029061322922
:104020000AD826490978C1EB01111A4602EB810032
:10403000214606F0D3FC09E020490978C1EB0111C3
:104040001F4A02EB8100214605F00AFF1B4909784F
:1040500001F1080005F062FF1DE01A4881698069DE
:10406000401C184A9061322904D82146104606F0B7
:10407000B5FC03E02146134805F0F2FE072005F0E9
:104080004DFF08E02146104805F0EAFE062005F045
:1040900045FF00E000BF00BF70BD000000640040AD
:1040A00078010020D0AF0120FCB00120A8AF012092
:1040B0000000C84244B2012000680040790100209D
:1040C00074B1012038B10120C0B0012030B5002208
:1040D0008B071C0F0F2303FA04F20B4B8C1053F8C1
:1040E00024309343084C8D1044F8253023468C101F
:1040F00053F824308C07240F00FA04F42343024CB5
:104100008D1044F8253030BD083801400CB5002032
:10411000019000903448006840F4803032490860D3
:1041200000BF3148006800F4003000900198401C46
:104130000190009818B90198B0F5A04FF1D12A4824
:10414000006800F4003010B10120009001E0002070
:1041500000900098012846D123484030006840F084
:1041600080502149403108602048006840F44040B8
:104170001E4908601C48083000681B490831086067
:104180000846006840F4004008600846006840F4B3
:10419000A05008601648091F0860081F006840F01A
:1041A0008070091F086000BF0F48006800F00070B1
:1041B0000028F9D040F205700E4908600A4808301E
:1041C000006820F0030008490831086008460068CC
:1041D00040F00200086000BF03480830006800F0AB
:1041E0000C000828F8D10CBD0038024000700040D7
:1041F0000C544007003C024000BFBFF34F8F0748FC
:10420000006800F4E06006490843001D03490860A7
:10421000BFF34F8F00BF00BFFEE700000CED00E0D2
:104220000000FA05042808D14FF0E021096941F0A7
:1042300004014FF0E022116107E04FF0E02109692D
:1042400021F004014FF0E0221161704710B50DF02C
:1042500027F8012801D00CF049FB10BD10B5044629
:104260006FF00400FFF7DEFFE11704EB5171C1F3BB
:10427000C701074A11701046007800EB4001C1EBFE
:10428000C0104FF6FF7101EAC0000249088010BD5E
:10429000500100205201002010B51548006840F47C
:1042A0007000134908601348006840F0010011498C
:1042B000086000200F49083108600E4800680E4968
:1042C00008400C4908600D48091D0860081F006877
:1042D00020F48020091F0860002006490C31086086
:1042E000FFF714FF4FF0006001498039086010BDEE
:1042F00088ED00E000380240FFFFF6FE1030002499
:104300001CB50548022100238022CDE9001003A13D
:1043100005480CF01FFE1CBD1C0000207374617268
:10432000745F7461736B0000DDF6000810B5012145
:10433000064800F0D5F820B1FFF72AFA0120044919
:1043400008700121014800F0ADF810BD00080040E0
:104350001800002030B58BB005460C46012108023C
:10436000FFF7EEFB01210220FFF72AFC03220721C1
:104370002B48FFF7C5F88020099002208DF828000F
:1043800001208DF82B0000208DF82A0003208DF8E5
:10439000290009A92248FFF76BF80795A0B2ADF8EC
:1043A00018000020ADF82000ADF81A0006A91D483D
:1043B00000F0BCF901A800F0AEF96020ADF80400EF
:1043C0000020ADF810000120ADF806004FF4FA60AF
:1043D000039001A9134800F09DF801A9114800F0CD
:1043E000E1F801A90F4800F03DF908210D4800F05F
:1043F000CFF808210B4800F027F90821094800F000
:1044000081F90121074800F00FF80121054800F06B
:1044100058F80121034800F048F80BB030BD000007
:10442000002002400004014021B1028842F08002D5
:10443000028004E002884FF67F731A4002807047C2
:104440007FB505460C4601210420FFF799FB029534
:10445000ADF804400020ADF80C00ADF8060001A94D
:104460000F4800F063F9012211460D4800F049F8A9
:1044700001210B4800F016F81E208DF800000020E6
:104480008DF801008DF8020001208DF803006846C8
:10449000FFF7B2FA0121024800F007F87FBD0000E3
:1044A00000080040CA430282704721B1028842F0EE
:1044B0000102028004E002884FF6FE731A40028077
:1044C000704731B1B0F8442042F40042A0F84420D3
:1044D00005E0B0F84420C2F30E02A0F84420704773
:1044E00030B50246002000230024158A05EA0103A6
:1044F000958905EA010413B10CB1012000E0002008
:1045000030BD1AB183890B43838102E083898B43D9
:104510008381704770B5002400220023058C4FF67C
:10452000FE7635400584028C8388048B4FF68F75A8
:104530002C40B51E2C400D882C43751E2A408D89B9
:104540002A434D882A43104DA84202D00F4DA8425D
:1045500013D14FF6F7752A40CD892A434FF6FB75E4
:104560002A408D882A434FF6FF652B404FF6FF55B2
:104570002B400D8A2B434D8A2B43838004838D6807
:104580004563028470BD000000000140000401404A
:104590000A460021018B4FF6F7731940114301833E
:1045A0007047000070B5002400220023058C4FF6F0
:1045B000EF7635400584028C8388048B48F6FF75BE
:1045C0002C404FF6FF452C400D884FF6FF7606EA4B
:1045D00005252C434FF6DF752A408D8906EA05151F
:1045E0002A434D8806EA05152A43154DA84202D0F4
:1045F000144DA8421DD14FF67F752A40CD894FF644
:10460000FF7606EA05152A434FF6BF752A408D88C6
:1046100006EA05152A434FF6FF352B404FF2FF758A
:104620002B400D8A06EA85052B434D8A06EA85054F
:104630002B43838004838D688563028470BD0000F2
:1046400000000140000401400A460021018B4FF2A6
:10465000FF7319404FF6FF7303EA022319430183E6
:104660007047000070B5002400220023058C4FF62F
:10467000FF6635400584028C8388848B4FF68F75E6
:104680002C404FF6FC752C400D882C434FF6FF55FF
:104690002A408D894FF6FF7606EA05252A434D8884
:1046A00006EA05252A43154DA84202D0144DA8421A
:1046B0001DD14FF2FF752A40CD894FF6FF7606EAED
:1046C00005252A434FF6FF352A408D8806EA052541
:1046D0002A434EF6FF752B404DF6FF752B400D8A91
:1046E00006EA05152B434D8A06EA05152B43838000
:1046F00084838D68C563028470BD000000000140A2
:10470000000401400A460021818B4FF6F7731940DF
:104710001143818370470021018041808180816045
:104720008181C1810182418270470000002202889C
:10473000184B98420ED0184B98420BD0B0F1804FD6
:1047400008D0164B984205D0154B984202D0154B15
:10475000984204D14FF68F731A404B881A43124B7C
:10476000984207D0114B984204D04FF6FF431A40AD
:104770000B891A4302804B68C3620B880385054B83
:10478000984202D0044B984201D18B7A03860123D0
:104790008382704700000140000401400004004093
:1047A00000080040000C00400010004000140040D1
:1047B00000B587B001210220FFF7C2F901210846A8
:1047C000FFF7BEF901211020FFF7FAF901211020AF
:1047D000FFF706FA00211020FFF702FA0722114620
:1047E0003148FEF78DFE072209213048FEF788FE8A
:1047F0008020059002208DF8180000208DF81A0006
:104800008DF81B0003208DF8190005A92648FEF736
:104810002FFE4FF40070059002208DF81800002044
:104820008DF81A008DF81B0003208DF8190005A9DA
:104830001E48FEF71DFE1E4800F018FB4FF4E13045
:1048400001900020ADF80800ADF80A00ADF80C00AA
:104850000C20ADF80E000020ADF8100001A914489E
:1048600000F0D8FB1021124800F0D2FA012240F2E9
:1048700024410F4800F0A9FB01210D4800F0E0FAA7
:1048800025208DF8000005208DF8010000208DF80E
:10489000020001208DF803006846FFF7ADF800F034
:1048A00009F807B000BD000000040240000002400B
:1048B0000010014000B58FB001218805FFF740F9D5
:1048C000012240211C4800F0C7FA1C48FEF73AFAC2
:1048D0004FF0006000901848001D019018480290A9
:1048E000002003904FF400700490002005904FF4D6
:1048F0008060069000200790089009900A900B9025
:1049000003200C9000200D900E9069460B48FEF796
:10491000EBFA00220B490948FEF7CBFA01210748C0
:10492000FEF7BCFA00210548FEF700FA0121034812
:10493000FEF7FCF90FB000BD001001408864024092
:104940007AAB01207AAD01201CB500200190102126
:10495000164800F003FB38B340F22441134800F03E
:104960000AFB08B3114800F0BFFB10210F4800F00C
:104970004FFA0C2005F0D2FA0D480068A0B101A84A
:104980000023012208210090094800680CF094FBE4
:10499000019848B1019838B14FF08050054908603E
:1049A000BFF34F8FBFF36F8F1CBD0000001001409D
:1049B0004C00002004ED00E00EB501210846FFF791
:1049C000BFF801210420FFF7BBF801218804FFF79D
:1049D000D7F801218804FFF7E3F800214FF4802085
:1049E000FFF7DEF807220B212648FEF789FD4FF47A
:1049F0000060019002208DF8080000208DF80A0068
:104A000001208DF80B0003208DF8090001A91D4835
:104A1000FEF72EFD1C4800F029FA1C481C490860CE
:104A200000208880C8804FF480600881042048817D
:104A300000208881144800F0EDFA0121124800F0AE
:104A4000FFF91021104800F0E3F910210E4800F0A2
:104A5000E8F9012240F224410B4800F0B6FA272081
:104A60008DF8000005208DF8010000208DF802006F
:104A700001208DF803006846FEF7BEFF00F00AF83B
:104A80000EBD00000008024000480040A086010062
:104A9000E8A2012000B58FB001214805FFF750F8CA
:104AA000012240211E4800F0D7F91E48FEF74AF9BE
:104AB0004FF0006000901A48001D01901A480290C3
:104AC0000020039024200490002005904FF4806083
:104AD00006900020079008904FF480700990002005
:104AE0000A900B9003200C9000200D900E906946C8
:104AF0000C48FEF7F9F900220B4924310948FEF76A
:104B0000D8F901210748FEF7C9F900210548FEF749
:104B10000DF901210348FEF709F90FB000BD0000AF
:104B200000480040286002400EA3012010B510216B
:104B3000394800F013FA00286CD040F2244136487E
:104B400000F019FA002865D0334800F0CDFA334858
:104B5000FEF7BFF950BB00213048FEF7E7F82F48B9
:104B6000FEF7B3F9C0F124002D49088008460088FB
:104B7000242806D12B492C4809F0D8FC0A2005F03E
:104B8000CDF924212548FEF7DBF924482838806A2E
:104B900040F4002021492839886224491F48FEF743
:104BA000ABF801211D48FEF7C1F82BE000211B489E
:104BB000FEF7BCF819481830FEF787F9C0F1240059
:104BC0001749088008460088242807D11549243150
:104BD000154809F0ABFC0A2005F0A0F924210F4884
:104BE000FEF7AEF90D482838806A20F400200B4902
:104BF000283988620D490948FEF77EF801210748E7
:104C0000FEF794F81021044800F002F91021024840
:104C100000F007F910BD0000004800402860024085
:104C2000540100200EA30120F8A201200000301042
:104C300000B587B001214020FEF782FF012120202E
:104C4000FEF7BEFF01212020FEF7CAFF0021202031
:104C5000FEF7C6FF08220E212848FEF751FC082265
:104C600009212648FEF74CFC4FF4844005900220B1
:104C70008DF8180000208DF81A008DF81B00032015
:104C80008DF8190005A91D48FEF7F2FB1C4800F03D
:104C9000EDF84FF4E13001900020ADF80800ADF8D8
:104CA0000A00ADF80C000C20ADF80E000020ADF8A5
:104CB000100001A9124800F0ADF91021104800F0D1
:104CC000A7F8012240F224410D4800F07EF90121AD
:104CD0000B4800F0B5F847208DF8000005208DF84E
:104CE000010000208DF8020001208DF803006846C5
:104CF000FEF782FE00F006F807B000BD0018024083
:104D00000014014000B58FB001218805FEF718FF9F
:104D1000012240211C4800F09FF81C48FEF712F8C1
:104D20004FF0206000901848001D01901848029034
:104D3000002003904FF480600490002005904FF411
:104D40008060069000200790089009900A900B90D0
:104D500003200C9000200D900E9069460B48FEF742
:104D6000C3F800220B490948FEF7A3F801210748C0
:104D7000FEF794F800210548FDF7D8FF012103480C
:104D8000FDF7D4FF0FB000BD0014014028640240BD
:104D90007AA301207AA701201CB5002001901021E0
:104DA000184800F0DBF860B340F22441154800F0E9
:104DB000E2F830B3134800F097F91021114800F0E1
:104DC00027F840F225510F4800F02BF80B2005F092
:104DD000A5F80D480068A0B101A800230122022116
:104DE0000090094800680CF067F9019848B10198F3
:104DF00038B14FF0805005490860BFF34F8FBFF3C3
:104E00006F8F1CBD001401404400002004ED00E041
:104E100001F40072B2F5007F00D100BFCA430280E6
:104E2000704710B50022002340F66A14A14200D159
:104E300000BF0A1201249440A3B2DC43048010BDD9
:104E400021B1828942F40052828104E082894DF6C8
:104E5000FF731A40828170471AB1838A0B438382A1
:104E600002E0838A8B4383827047000010B50446BA
:104E70003248844208D101211020FEF7B1FE002102
:104E80001020FEF7ADFE57E02D48844209D10121E4
:104E90004804FEF785FE00214FF40030FEF780FE47
:104EA0004AE02848844209D101218804FEF778FEAF
:104EB00000214FF48020FEF773FE3DE0224884423B
:104EC00009D10121C804FEF76BFE00214FF4002038
:104ED000FEF766FE30E01D48844209D10121080535
:104EE000FEF75EFE00214FF48010FEF759FE23E02E
:104EF0001748844208D101212020FEF771FE0021CD
:104F00002020FEF76DFE17E01248844209D10121EE
:104F10008807FEF745FE00214FF08040FEF740FE77
:104F20000AE00D48844207D101214005FEF738FE12
:104F300000216005FEF734FE10BD000000100140A6
:104F40000044004000480040004C00400050004039
:104F50000014014000780040007C00400246002020
:104F6000B1F5007F00D100BF13880B400BB10120C9
:104F700000E00020704770B50246002400230025A1
:104F8000002040F66A16B14200D100BFC1F34215BD
:104F900001F01F03012606FA03F3012D02D19689C1
:104FA000334006E0022D02D1168A334001E0968A92
:104FB00033400C12012606FA04F41688344013B16B
:104FC0000CB1012000E0002070BDF0B503460024C4
:104FD00000260025002040F66A17B94200D100BF24
:104FE0001846C1F3421401F01F06012707FA06F51F
:104FF000012C01D10C3004E0022C01D1103000E072
:1050000014301AB107682F43076002E00768AF4306
:105010000760F0BD2DE9FF4705460E460024A14676
:1050200000BFA046B08900B100BF2C8A24F44054D0
:10503000F08804432C82AC8941F20C608443B08830
:1050400031890843718908430443AC81AC8A24F454
:105050004074B0890443AC826846FEF7DBFD20480B
:10506000854202D01F48854202D1DDF80C9001E054
:10507000DDF80890A88900F4004040B109EBC900B0
:1050800000EB091031684900B0FBF1F707E009EBCC
:10509000C90000EB091031688900B0FBF1F764200A
:1050A000B7FBF0F004012009642101FB1078A88906
:1050B00000F4004040B1322000EBC800B0FBF1F03A
:1050C00000F00700044308E0322000EB08106421E0
:1050D000B0FBF1F000F00F0004432C81BDE8FF8726
:1050E000001001400014014001468888C0F3080008
:1050F000704770B504460D46D4F8E4052946426869
:1051000020469047002070BD70B504460D464FF410
:105110008970005D022802D0032812D100E000BF90
:10512000688801280CD100214FF48C700151D4F80B
:10513000E4052946826820469047204600F075F82D
:1051400004E02946204600F021F800BF00BF70BDF2
:105150002DE9F04106460C46154600272B4622460F
:1051600000213046FDF707F93846BDE8F0812DE90A
:10517000F04106460C46154600272B4622460021E4
:105180003046FDF753F93846BDE8F08170B5044666
:105190000D4680212046FDF725F900212046FDF728
:1051A00021F9204601F044F970BD2DE9F041044693
:1051B0000E4615460027C4F89453C4F890530321B3
:1051C00040F2111001552B46324600212046FDF7D2
:1051D000D2F83846BDE8F08170B5044600250521B7
:1051E00040F21110015500231A4619462046FDF7DA
:1051F000C2F8204601F01CF9284670BD2DE9F041A7
:1052000004460E4615460027C4F83C51C4F83851F0
:10521000022140F2111001552B4632460021204652
:10522000FDF704F93846BDE8F08170B50446002565
:10523000042140F21110015500231A461946204658
:10524000FDF7F4F8204601F0F3F8284670BD70B57C
:1052500005460E46002E5DD105F58E7440F2111004
:10526000405D022849D1A168E069884217D9A16848
:10527000E069401AE061E878012803D1D4E902101E
:105280000844E060A08B82B22846E168FFF76FFF18
:1052900000231A4619462846FDF76DF82DE0A1684F
:1052A000206AB0FBF1F201FB1200A8B9A168206AE4
:1052B000884211D3D4E9080188420DD20022114658
:1052C0002846FFF754FF0020606200231A46194663
:1052D0002846FDF750F810E0D5F8E405C06848B15D
:1052E0004FF48970405D032804D1D5F8E405C16806
:1052F000284688472846FFF76FFF4FF48B70405DC4
:10530000012816D1284600F063FA00214FF48B7073
:1053100041550EE0D5F8E405406950B14FF489706D
:10532000405D032805D1D5F8E40531464269284699
:105330009047002070BD70B505460E46A6BB05F52A
:105340005D7440F21110405D03283DD1A168E06911
:10535000884217D9A168E069401AE061E87801281D
:1053600003D1D4E902100844E060A368E0699842E0
:1053700001D2E06900E0A06882B22846E168FFF748
:10538000E7FE21E0D5F8E405006948B14FF48970E3
:10539000405D032804D1D5F8E40501692846884713
:1053A0002846FFF742FF0FE0FFE7D5F8E4058069E4
:1053B00050B14FF48970405D032805D1D5F8E4055C
:1053C0003146826928469047002070BD0146002082
:1053D0007047000070B504460D46E888012804D0E7
:1053E00029462046FFF7D2FE1AE04FF48970005D8F
:1053F000022802D003280DD105E0012209492046E8
:10540000FFF7FCFE0BE0012204F588712046FFF750
:10541000F5FE04E029462046FFF7B8FE00BF00BFB6
:1054200070BD000048090020F8B504460E46F0881B
:10543000009070880012082862D2DFE800F0610452
:105440000C186161575CA078D4F8EC150A686946BD
:105450009047054659E0A078D4F8E4158A6A694671
:105460009047054602216970C4F8F0554DE0B078C8
:10547000062834D2DFE800F0030B131B232BA0789F
:10548000D4F8EC154A686946904705462CE0A078A8
:10549000D4F8EC158A6869469047054624E0A07860
:1054A000D4F8EC15CA686946904705461CE0A07818
:1054B000D4F8EC150A6969469047054614E0A078CF
:1054C000D4F8EC154A696946904705460CE0A07887
:1054D000D4F8EC158A6969469047054604E03146E0
:1054E0002046FFF753FEF8BD00BF0EE031462046D0
:1054F000FFF74CFEF7E731462046FFF747FEF2E79D
:1055000031462046FFF742FEEDE700BFBDF8000040
:1055100088B1F08878B1F088BDF80010884202DDCB
:10552000BDF8000000E0F0880090BDF8002029469A
:105530002046FFF763FE00BFD5E70146002002E0EA
:10554000421CD0B2491C0A78002AF9D170470000E9
:1055500070B504460D464FF48970005D022802D0F4
:10556000032813D100E000BF01200C4908604FF46C
:105570008C70005920B10846006840F002000860B5
:10558000022206492046FFF739FE04E0294620465C
:10559000FFF7FCFD00BF00BF70BD00004C090020FC
:1055A0002DE9F04104460D4617460026FCB1204681
:1055B000FFF7C3FF022101EB400038803A78304604
:1055C000711CCEB22A5403223046711CCEB22A542A
:1055D0000AE014F8012B3046711CCEB22A54002286
:1055E0003046711CCEB22A5420780028F1D1BDE893
:1055F000F0812DE9F04104460F4615461E46DDF8C0
:105600001880204600F00CFC2046FFF7DFFEC4F8AF
:10561000E465C4F8E885C4F8EC5539462046FDF742
:1056200087FAD4F8E81508688047204600F0E6FBC2
:10563000BDE8F08110B50446D4F8E405016A2046BF
:105640008847002010BD10B50446D4F8E405416A2F
:1056500020468847002010BD7CB50546002428461A
:1056600001F0E2F9002865D0284601F0E8F9019040
:10567000019808B900207CBD0198C0F3C04018B162
:105680002846FDF75BF804430198C0F3804018B149
:105690002846FCF7BFFF04430198C0F3400050B117
:1056A00000200090009820F00200801C00900098DC
:1056B000E968486100BF0198C00F18B12846FDF79E
:1056C000BDF804430198C0F3C02018B12846FDF787
:1056D00059F904430198C0F3C00018B12846FDF7FA
:1056E0003BF904430198C0F3001018B12846FDF7B8
:1056F000DBF804430198C0F3003018B12846FDF7E9
:1057000095F904430198C0F3403018B12846FCF7DE
:10571000B5FE04430198C0F3005018B12846FDF7C8
:1057200055FA04430198C0F3405018B12846FDF7DC
:1057300063FA044320469EE790F8CC250A7090F85F
:10574000CD254A7090F8CE3590F8CF2503EB022294
:105750004A8090F8D03590F8D12503EB02228A8058
:1057600090F8D23590F8D32503EB0222CA80CB887B
:105770004FF4A0721350012340F2111213547047DA
:1057800010B504460023402219462046FCF7BFFD11
:105790000023402280212046FCF7B9FD01214FF46F
:1057A00089700155A078D4F8E82551688847002011
:1057B00010BD10B50446D4F8E8150869804740F2DA
:1057C0001310015D401E015503210155002010BD3D
:1057D00001460348026808694260002070470000E3
:1057E0001009002010B50446D4F8E405C06920B1C2
:1057F000D4F8E405C16920468847002010BD70B583
:1058000004460D46A88818BBE88808BBA87800F0B5
:105810007F064FF48970005D032804D12946204695
:10582000FFF7B4FC18E04FF48A7006553146204665
:10583000FCF7CAFD2046FFF7F8FC26B102214FF421
:105840008970015508E001214FF48970015503E08A
:1058500029462046FFF79AFC70BD70B504460D46F8
:10586000D4F8E4052946026820469047D4F8E815A4
:1058700088688047002070BD70B504460D46A87842
:105880003049087008460078022804DD2946204681
:10589000FFF77CFC55E04FF48970005D022802D0D0
:1058A000032848D117E02748007880B125480078C0
:1058B00084F8100103214FF48970015521480178C3
:1058C0002046FFF7CAFF2046FFF7AFFC02E0204664
:1058D000FFF7ABFC34E01B48007880B902214FF49D
:1058E000897001551748007884F81001154801782F
:1058F0002046FFF7FEFB2046FFF797FC1AE094F8DE
:10590000100110490978884211D094F810112046EE
:10591000FFF7EFFB0B48007884F810010948017885
:105920002046FFF79AFF2046FFF77FFC02E0204663
:10593000FFF77BFC04E029462046FFF727FC00BF69
:1059400000BF70BD50090020F8B504460D46002682
:10595000688801280DD101214FF48C700151D4F8D1
:10596000E40529468268204690472046FFF75DFC03
:105970003FE0688802283CD12879D0BB2069406884
:105980000090A8880612062E22D2DFE806F0210336
:10599000090F151B009820F07000103000901DE0DA
:1059A000009820F070002030009017E0009820F060
:1059B00070003030009011E0009820F0700040300E
:1059C00000900BE0009820F070005030009005E04F
:1059D000009820F070001030009000BF00BF054814
:1059E0000099016001214FF48B7001552046FFF7AB
:1059F0001CFCF8BD100900201CB504466946204671
:105A0000FFF79AFE9DF8000000F01F0020B101286A
:105A100007D002280FD109E06946204600F016F8A9
:105A200011E06946204600F007F90CE0694620467F
:105A300000F046F807E09DF8000000F080012046E5
:105A4000FCF7D0FC00BF00BF00201CBD70B50546B0
:105A50000C46002660780A2829D2DFE800F01923D6
:105A6000281E280A0528140F21462846FFF7DCFCCB
:105A700022E021462846FFF7C2FE1DE021462846C7
:105A8000FFF7FAFE18E021462846FFF7A3FC13E0D3
:105A900021462846FFF75CFD0EE021462846FFF729
:105AA00053FF09E021462846FFF72EFB04E021467C
:105AB0002846FFF76BFB00BF00BF304670BD0000FB
:105AC0002DE9F04105460E4600273479307800F084
:105AD0006000202808D1D5F8E405314682682846C0
